:0300000002084EA5
:0C084E00787FE4F6D8FD7581450208951E
:100A9D0041646472657373204552524F52002000B9
:070AAD004C4344204F4E00B2
:1009D80002200002020A0003021E000402080003AB
:1009E80008220004000500060007060C00000001AC
:1009F80000020C123132333435363738392A302375
:040A67007F327E005C
:100A6B00EF4E60147D737C00ED1D70011CED4C701E
:080A7B00F7EF1F70EB1E80E88D
:010A83002250
:100A0900C290D291E520701FE52114600E14600F89
:100A1900146010240370108F80800E8F90800A8FCD
:0F0A2900A080068FB080028F80120A67C29122D0
:100A84007F38120A097F02120A097F01120A097FBC
:090A94000C120A097F06020A098E
:100A3800D290D291E520701FE52114600E14600F4A
:100A4800146010240370108F80800E8F90800A8F9E
:0F0A5800A080068FB080028F80120A67C29122A1
:06070D007BFF7A0A79ABC4
:060713008B328A338934A9
:10071900E4F535F536AB32AA33A934853682853509
:10072900831207BA600A0536E53670E9053580E5B2
:10073900E4F537F538C3E5389536E5379535507022
:10074900D290D291E520700DE52114600A14601A47
:1007590014602A24038039AB32AA33A9348538823C
:100769008537831207BAF5908037AB32AA33A9349B
:100779008538828537831207BAF5A08024AB32AA5F
:1007890033A9348538828537831207BAF5B08011C9
:10079900AB32AA33A9348538828537831207BAF573
:1007A90080120A67C2910538E53870890537808556
:0107B900221D
:050AB4007F01020A09A8
:0808DA00120AB4E4FDFCFFFE6C
:0808E2008E2C8F2D8C2E8D2F22
:1008EA00E52D452C7019D3E52F940FE52E94005071
:1008FA0006E52F2480801F7530007531808029E538
:10090A002D6401452C7028D3E52F940FE52E940011
:10091A005010E52F24C0F531E4352EF530AF310201
:10092A000A097530007531C0AF31120A0980007B9F
:08093A00FF7A0A799D120713F0
:010942002292
:04063400AB07AA0660
:10063800E4F539F53AF53BF53CEB4A60397C007D49
:100648000AAF03AE021207F98C838D82AE39AF3A36
:100658007C007D0A1207E7EF2582F53AEE3583F52F
:1006680039AF03AE021207F9AA06AB07053CE53C11
:1006780070C7053B80C3E4FBFAC3EB953CEA953BA6
:10068800502BAE39AF3A7C007D0A1207F9ED2430C1
:10069800FF743D2BF8A607AE39AF3A7C007D0A12ED
:1006A80007F98E398F3A0BBB00010A80CC743D25BF
:1006B8003CF8E4F6FAFBC3EB953CEA953B5045D28F
:1006C80090D291E520700DE52114600A1460101491
:1006D80060162403801B743D2BF8E6F5908019748E
:1006E8003D2BF8E6F5A08010743D2BF8E6F5B080B8
:1006F80007743D2BF8E6F580120A67C2910BBB0020
:04070800010A80B2B0
:01070C0022CA
:040943008E428F430E
:10094700E543454270237F80120A097544007545C7
:100957000112070D0545E54570020544D39410E5DE
:1009670044940040EC7F80802DE54364014542704C
:10097700237FC0120A0975440075450112070D054A
:1009870045E54570020544D39410E544940040ECD6
:090997007FC080027F01120A09F1
:0109A0002234
:10000300E4F52EF52FE50B450A60030200D9F52C24
:10001300F52DC3E52D951FE52C951E4003020352D4
:10002300E52D25E02422F808E6FFF8740108800294
:10003300C333D8FCF45280E4FAFBC3EB951FEA9573
:100043001E5026E52D6B7003E52C6A6015EB25E049
:100053002422F808E6FFF87401088002C333D8FCB1
:1000630042800BBB00010A80D1E4FCFDC3ED95097E
:10007300EC95085056ED25E0240CF808E6FF7E00C9
:100083007401A807088005C333CE33CED8F9FFA97E
:1000930080E9F582EF5582702BF52E752F01ED2542
:1000A300E0240CF808E6FF7E007401A80708800529
:1000B300C333CE33CED8F9FFA980E9F582EF558259
:1000C300700980DA0DBD00010C80A1052DE52D70AE
:1000D30002052C020015E50B6401450A60030201C9
:1000E300ACF52CF52DC3E52D951FE52C951E40038E
:1000F300020352E52D25E02422F808E6FFF87401F7
:10010300088002C333D8FCF45290E4FAFBC3EB95A6
:100113001FEA951E5026E52D6B7003E52C6A6015CA
:10012300EB25E02422F808E6FFF87401088002C3F7
:1001330033D8FC42900BBB00010A80D1E4FCFDC321
:10014300ED9509EC95085056ED25E0240CF808E6EA
:10015300FF7E007401A807088005C333CE33CED8D1
:10016300F9FFA990E9F582EF5582702BF52E752FD3
:1001730001ED25E0240CF808E6FF7E007401A807D2
:10018300088005C333CE33CED8F9FFA990E9F582B1
:10019300EF5582700980DA0DBD00010C80A1052D99
:1001A300E52D7002052C0200E8E50B6402450A60A8
:1001B3000302027FF52CF52DC3E52D951FE52C9544
:1001C3001E4003020352E52D25E02422F808E6FF32
:1001D300F87401088002C333D8FCF452A0E4FAFB9C
:1001E300C3EB951FEA951E5026E52D6B7003E52C96
:1001F3006A6015EB25E02422F808E6FFF87401088D
:100203008002C333D8FC42A00BBB00010A80D1E4B7
:10021300FCFDC3ED9509EC95085056ED25E0240C43
:10022300F808E6FF7E007401A807088005C333CEF3
:1002330033CED8F9FFA9A0E9F582EF5582702BF5EB
:100243002E752F01ED25E0240CF808E6FF7E0074DF
:1002530001A807088005C333CE33CED8F9FFA9A080
:10026300E9F582EF5582700980DA0DBD00010C803B
:10027300A1052DE52D7002052C0201BBE50B6403DE
:10028300450A6003020352F52CF52DC3E52D951F96
:10029300E52C951E4003020352E52D25E02422F8A8
:1002A30008E6FFF87401088002C333D8FCF452B0A7
:1002B300E4FAFBC3EB951FEA951E5026E52D6B7000
:1002C30003E52C6A6015EB25E02422F808E6FFF825
:1002D3007401088002C333D8FC42B00BBB00010A8F
:1002E30080D1E4FCFDC3ED9509EC95085056ED254E
:1002F300E0240CF808E6FF7E007401A807088005D7
:10030300C333CE33CED8F9FFA9B0E9F582EF5582D6
:10031300702BF52E752F01ED25E0240CF808E6FF70
:100323007E007401A807088005C333CE33CED8F905
:10033300FFA9B0E9F582EF5582700980DA0DBD009F
:10034300010C80A1052DE52D7002052C02028EAE55
:030353002EAF2F9B
:010356002284
:10035700E50B450A600302040CF583F582C3E582C9
:10036700951FE583951E4003020631AF82EF25E016
:100377002422F808E6FFF87401088002C333D8FC8A
:10038700F45280E4F52CF52DC3E52D951FE52C954A
:100397001E502CE582652D7004E583652C6016E5FB
:1003A7002D25E02422F808E6FFF87401088002C32F
:1003B70033D8FC4280052DE52D70CD052C80C9E48E
:1003C700FAFBC3EB9509EA95085036EB25E0240CB8
:1003D700F808E6FF7E007401A807088005C333CE3E
:1003E70033CED8F9FFAD80EF5D700FAE82EE75F0BA
:1003F70003A424122BF8E6F980070BBB00010A803F
:10040700C1A3020364E50B6401450A60030204C348
:10041700F583F582C3E582951FE583951E400302A8
:100427000631AF82EF25E02422F808E6FFF87401D1
:10043700088002C333D8FCF45290E4F52CF52DC3A1
:10044700E52D951FE52C951E502CE582652D700432
:10045700E583652C6016E52D25E02422F808E6FFE4
:10046700F87401088002C333D8FC4290052DE52DAE
:1004770070CD052C80C9E4FAFBC3EB9509EA950812
:100487005036EB25E0240CF808E6FF7E007401A83F
:1004970007088005C333CE33CED8F9FFAD90EF5DA3
:1004A700700FAE82EE75F003A424122BF8E6F980E4
:1004B700070BBB00010A80C1A302041BE50B640202
:1004C700450A600302057AF583F582C3E582951F25
:1004D700E583951E4003020631AF82EF25E0242213
:1004E700F808E6FFF87401088002C333D8FCF45219
:1004F700A0E4F52CF52DC3E52D951FE52C951E5091
:100507002CE582652D7004E583652C6016E52D25A5
:10051700E02422F808E6FFF87401088002C333D804
:10052700FC42A0052DE52D70CD052C80C9E4FAFB12
:10053700C3EB9509EA95085036EB25E0240CF8083B
:10054700E6FF7E007401A807088005C333CE33CECB
:10055700D8F9FFADA0EF5D700FAE82EE75F003A482
:1005670024122BF8E6F980070BBB00010A80C1A310
:100577000204D2E50B6403450A6003020631F583E2
:10058700F582C3E582951FE583951E400302063178
:10059700AF82EF25E02422F808E6FFF8740108800F
:1005A70002C333D8FCF452B0E4F52CF52DC3E52D86
:1005B700951FE52C951E502CE582652D7004E5836B
:1005C700652C6016E52D25E02422F808E6FFF8746F
:1005D70001088002C333D8FC42B0052DE52D70CD4C
:1005E700052C80C9E4FAFBC3EB9509EA9508503658
:1005F700EB25E0240CF808E6FF7E007401A8070845
:100607008005C333CE33CED8F9FFADB0EF5D700FA1
:10061700AE82EE75F003A424122BF8E6F980070BDF
:0C062700BB00010A80C1A3020589AF01DD
:0106330022A4
:1009A100120A841208DA7BFF7A0A79AD1207137FE3
:1009B100E87E03120A6B1208DA1200038E2A8F2BCB
:1009C100E52B6401452A70F1120357120A387FE8BA
:0709D1007E03120A6B80E9AE
:10085A000209A1E493A3F8E493A34003F68001F20A
:10086A0008DFF48029E493A3F85407240CC8C3339F
:10087A00C4540F4420C8834004F456800146F6DF6E
:10088A00E4800B01020408102040809009D8E47E1D
:10089A00019360BCA3FF543F30E509541FFEE49363
:1008AA00A360010ECF54C025E060A840B8E493A32A
:1008BA00FAE493A3F8E493A3C8C582C8CAC583CA55
:1008CA00F0A3C8C582C8CAC583CADFE9DEE780BE0D
:010A080000ED
:1007BA00BB010CE58229F582E5833AF583E02250F4
:1007CA0006E92582F8E622BBFE06E92582F8E2223E
:0D07DA00E58229F582E5833AF583E4932258
:1007E700EF8DF0A4A8F0CF8CF0A428CE8DF0A42E26
:0207F700FE22E0
:1007F900BC000BBE0029EF8DF084FFADF022E4CCE4
:10080900F875F008EF2FFFEE33FEEC33FCEE9DECAC
:10081900984005FCEE9DFE0FD5F0E9E4CEFD22EDF2
:10082900F8F5F0EE8420D21CFEADF075F008EF2F3C
:10083900FFED33FD4007985006D5F0F222C398FD2D
:050849000FD5F0EA22CA
:00000001FF
