:030000000208EC07
:0C08EC00787FE4F6D8FD75810E02085BF1
:0808CB00D2918FA07F327E0064
:1008D300EF4E60147D737C00ED1D70011CED4C70B8
:0808E300F7EF1F70EB1E80E827
:0108EB0022EA
:0808F800D2901208CBC291223C
:08090000C2901208CBC2912243
:060800008B088A09890A39
:10080600E4F50BF50CAB08AA09A90A850C82850B41
:100816008312089E600A050CE50C70E9050B80E55D
:10082600E4F50DF50EC3E50E950CE50D950B50247C
:10083600D290D291AB08AA09A90A850E82850D83AA
:1008460012089EF5A01208CFC291050EE50E70D5CE
:04085600050D80D13B
:01085A00227B
:10085B007F381209007F021209007F011209007F05
:10086B000C1209007F061209007F801209007F57C6
:10087B001208F87F651208F87F6C1208F87F631274
:10088B0008F87F6F1208F87F6D1208F87F65120861
:03089B00F880FEE4
:10089E00BB010CE58229F582E5833AF583E022500F
:1008AE0006E92582F8E622BBFE06E92582F8E22259
:0D08BE00E58229F582E5833AF583E4932273
:00000001FF
