:03000000020D26C8
:0C0D2600787FE4F6D8FD758146020D6D63
:10019F0041646472657373204552524F52002000C0
:1001AF0054696D653A2000446174653A20005374B8
:1001BF006174653A20004175746F6D6174696300F5
:1001CF004D616E75616C004F75747075743A2000D7
:1001DF004F4646004F4E005365742054696D65209D
:1001EF002868727329005365742054696D6520283F
:1001FF006D696E73290053657420446174652028FE
:10020F006461792900536574204461746520286DF9
:10021F006F6E7468290053657420446174652028DB
:10022F0079656172290053657420446174652028D3
:10023F00776B6461792900536574204F4E205469A0
:10024F006D652028482900536574204F4E2054694E
:10025F006D6520286D2900536574204F4E20506521
:10026F0072696F6428482900536574204F4E2050DF
:10027F006572696F64286D290038303531205072EE
:10028F006F6A65637400414C41524D20434C4F439C
:10029F004B00000000000000000000000000000004
:1002AF0000004D5457544653534D545754465353CF
:1002BF004D5457544653534D5457544653534D541E
:0502CF00575446535393
:10139D000213000202160000020A000002080000FB
:0D1330007F057E0012133DD2B07F057E00C8
:10133D00EF4E60147D737C00ED1D70011CED4C7043
:08134D00F7EF1F70EB1E80E8B2
:011355002275
:1011DD00C290D291E513701FE51414600E14600FC8
:1011ED00146010240370108F80800E8F90800A8FF2
:1011FD00A080068FB080028F807F327E0012133D5B
:03120D00C2912269
:101356007F381211DD7F021211DD7F011211DD7F50
:091366000C1211DD7F060211DDFD
:0C1128007F201211347F2F1211347F2021
:10113400D290D291E513701FE51414600E14600F61
:10114400146010240370108F80800E8F90800A8F9B
:10115400A080068FB080028F807F327E0012133D04
:03116400C2912213
:060962007BFF7A0179AD74
:060968008B368A37893846
:10096E00E4F539F53AAB36AA37A938853A82853996
:10097E00831200F9600A053AE53A70E9053980E517
:10098E00E4F53BF53CC3E53C953AE53B95395074AF
:10099E00D290D291E513700DE51414600A14601A0A
:1009AE0014602A24038039AB36AA37A938853C82D5
:1009BE00853B831200F9F5908037AB36AA37A938FC
:1009CE00853C82853B831200F9F5A08024AB36AAC4
:1009DE0037A938853C82853B831200F9F5B080112A
:1009EE00AB36AA37A938853C82853B831200F9F5D0
:1009FE00807F327E0012133DC291053CE53C70852E
:040A0E00053B8081A3
:010A120022C1
:0513F0007F010211DD88
:0A0EB1008F151213F0E4FDFCFFFEA4
:080EBB008E308F318C328D3333
:100EC300E53145307019D3E533940FE53294005082
:100ED30006E5332480801F7534007535808029E54D
:100EE30031640145307028D3E533940FE532940023
:100EF3005010E53324C0F535E43532F534AF35020F
:100F030011DD7534007535C0AF351211DD80007BFE
:080F1300FF7A01799F120968C1
:010F1B0022B3
:0406BB00AB07AA06D9
:1006BF00E4F53EF53FF540F541EB4A70057F30021A
:1006CF001134EB4A60397C007D0AAF03AE02120190
:1006DF004A8C838D82AE3EAF3F7C007D0A1201387B
:1006EF00EF2582F53FEE3583F53EAF03AE021201E3
:1006FF004AAA06AB070541E54170C7054080C3E430
:10070F00FBFAC3EB9541EA9540502BAE3EAF3F7CD1
:10071F00007D0A12014AED2430FF74422BF8A60720
:10072F00AE3EAF3F7C007D0A12014A8E3E8F3F0BDB
:10073F00BB00010A80CC74422541F8E4F6FAFBC3F2
:10074F00EB9541EA95405049D290D291E513700D47
:10075F00E51414600A1460101460162403801B74CF
:10076F00422BF8E6F590801974422BF8E6F5A0803D
:10077F001074422BF8E6F5B0800774422BF8E6F5BB
:10078F00807F327E0012133DC2910BBB00010A80A5
:01079F00AEAB
:0107A0002236
:1002D4007F201211347F3A1211347F20121134AF6F
:0702E400157E007D027C0085
:0802EB008E308F318C328D330F
:1002F300E4F534F535853036853137F53C753D0108
:10030300E53145307021F53AF53BC3E53B9533E5DF
:100313003A953240030203E07F30121134053BE586
:100323003B70E7053A80E3E53745366037AE36AFD5
:10033300377C007D0A12014AAA04AB05AE38AF39F7
:100343007C007D0A120138EF2BF539EE3AF538AE11
:1003530036AF3712014A8E368F370535E53570C70C
:10036300053480C3D3E5359533E53495325030C336
:10037300E5339535FFE5329534AB07FAE4F53AF505
:100383003BC3E53B9BE53A9A500F7F30121134058E
:100393003BE53B70EC053A80E8AF31AE30803BC3C0
:1003A300E5359533FFE5349532AB07FAD3EB94008B
:1003B300EA94004016AE3CAF3D7C007D0A12013842
:1003C3008E3C8F3DEB1B70E41A80E1AC3CAD3DAE3F
:0D03D30030AF3112014A8E368F371206BB53
:0103E00022FA
:040FE2008E188F19BD
:100FE600E519451870237F801211DD751A00751BEF
:100FF60001120962051BE51B7002051AD39410E560
:101006001A940040EC7F80802DE519640145187024
:10101600237FC01211DD751A00751B0112096205C6
:101026001BE51B7002051AD39410E51A940040ECD8
:091036007FC080027F011211DD70
:01103F00228E
:0F13BE00D2B0D2B1121339C2B1121339C2B02258
:0313CD00121217E2
:0A13D000C2B0C2B1121330D2B12234
:07121000A9071213BE7FD0F5
:02121700AB0723
:10121900E4FAEB30E703D38001C392B1121337C26A
:10122900B0EB25E0FB0ABA08E9D2B1D2B020B1FD92
:09123900C2B07F057E0002133DE6
:1011A400E53CC4F854F0C8E53DC4540F4875F00A52
:0D11B400A4FFE53D540F2F1201261213DA9F
:1011C100E4FA121330A2B19200EB25E0FBA200E495
:0B11D100334203C2B00ABA08E9AF03C2
:0111DC0022F0
:0613EA00121330C2B02214
:0813DA00C2B11213EAD2B122E4
:0813E200D2B11213EAD2B022CD
:10136F008F21A9051213BE7FA0121217AF211212DF
:09137F0017AF011212170213D07E
:041307008F10AF0D87
:02130B00A90730
:10130D001213BE7FA0121217AF011212171213BEC5
:10131D007FA11212171211C1AB071213E21213D0D3
:02132D00AF030C
:01132F00229B
:090885007F02121217AF257E005C
:10088E008E308F3178327C007D007BFF7A0279A129
:10089E007E007F101200D3E4F542F5437B07FAD3B6
:1008AE00E5319400E53094004051AE30AF317C001C
:1008BE007D0A12014A8D828C83AE30AF317C007D71
:1008CE000A12014A8E308F31D3E5829400E583946B
:1008DE00004022E5825401FFEB25E02432F8760039
:1008EE0008A607E583C313F583E58213F582EB1B98
:1008FE0070D61A80D37A007B0380A4E4FBFAC3740B
:10090E00079BFFE49AAD07FC754400754501900006
:10091E0000C3E5829DE5839C500EE54525E0F54537
:10092E00E54433F544A380E9EB25E02432F8E6FCF8
:10093E0008E6FDAE44AF45120138EF2543F543EE10
:10094E003542F5420BBB00010AEB64084A70AFAEAC
:03095E0042AF4362
:010961002273
:1013AE001212127F07121217E4FF1212170213D035
:1012D8008F218D22A903121212E4FF121217AF01F7
:1012E8007E0012088E121217AF227E0012088E128C
:0F12F8001217AF217E0012088E1212170213D0A8
:101167008F258D26E52664416006E5266461700BB0
:10117700121212120885EF44408015E5266450606C
:1011870006E5266470700C121212120885EF44608F
:0D119700FF80061212121208851213CD22DD
:101388001212107F01121217AF017E0012088E127E
:0513980012170213D042
:101242008D2D8B2E1212107F03121217AF2F121236
:1012520017AF017E0012088E121217AF2D7E0012F8
:10126200088E121217AF2E7E0012088E121217026B
:0212720013D097
:0604E1008B308A318932E4
:1004E700121212E4FF1213CD1213BE7FD11212178C
:1004F7001211C1753C008F3DAB36AA37A9381211CE
:10050700A4753C008F3DAB33AA34A9351211A475ED
:100517003C008F3D1213E21213D0C3E53D9440E532
:100527003C9400502AE53CC4F854F0C8E53DC45457
:100537000F4875F00AA4FFE53D540F2FAB30AA31E1
:10054700A932120126AB39AA3AA93B74308077C386
:10055700E53D9440E53C94004037D3E53D9460E5A4
:100567003C9400502CE53CC4F854F0C8E53DC45415
:100577000F48540175F00AA4FFE53D540F2FAB3027
:10058700AA31A932120126AB39AA3AA93B74418094
:1005970035D3E53D9460E53C9400402DE53CC4F837
:1005A70054F0C8E53DC4540F48540175F00AA4FF40
:1005B700E53D540F2FAB30AA31A932120126AB39D2
:0905C700AA3AA93B745012012666
:0105D0002208
:060C97008B308A31893226
:100C9D001212127F031212171213D01213BE7FD12C
:100CAD001212171211C1AB39AA3AA93BEF1211BB9F
:100CBD00AD077C00ECC4F854F0C8EDC4540F487572
:100CCD00F00AA4FFED540F2FAB30AA31A932121147
:100CDD00BB7C00AD07ECC4F854F0C8EDC4540F480C
:100CED0075F00AA4FFED540F2FAB33AA34A93512BA
:100CFD0011BB7C00AD07ECC4F854F0C8EDC4540F23
:100D0D004875F00AA4FFED540F2FAB36AA37A9385A
:090D1D001201261213E20213D0A8
:1007A10078297C007D007BFF7A0279B17E007F078A
:1007B1001200D37533007534007535227536007516
:1007C1003700753821753900753A00753B247B0077
:1007D1007A0079231204E1753300753400753526EA
:1007E100753600753700753827753900753A00750B
:1007F1003B287B007A007925120C97120EB37BFF00
:100801007A0179AF120968E4FDFC7F01FE120EBB8B
:100811007BFF7A0179B61209687D067C00E4FFFE50
:10082100120EBBAF231202E57F3A121134AF22122E
:1008310002E57F3A121134AF211202E57D0F7C00EF
:10084100E4FFFE120EBBE52464306005AF241211F3
:10085100347D067C007F017E00120EBBAF251202A3
:10086100E57F2F121134AF261202E57F2F121134CA
:10087100AF271202E57F2012113474282528F8E6EB
:04088100FF0211342D
:1010E200120EB37BFF7A0179BD120968E509450842
:1010F2007BFF70067A0179C580047A0179CF1209E3
:1011020068E4FDFC7F01FE120EBB7BFF7A0179D6FB
:101112001209687BFF2097067A0179DF80047A0141
:0611220079E312096822C6
:10127400A293E433B5172AE4B51626C3E50B940A02
:10128400E50A9400500A050BE50B7009050A800570
:10129400E4F50AF50BA293E43365177002E51660D2
:0212A400F42232
:1012A600A295E433B5172AE4B51626C3E5099402D8
:1012B600E5089400500A0509E50970090508800546
:1012C600E4F508F509A295E43365177002E51660A2
:0212D600F42200
:1005D1007533007534007535227536007537007531
:1005E1003823753900753A00753B247B007A007910
:1005F100211204E1120EB37BFF7A0179E612096838
:10060100E4FDFC7F01FE120EBBAF211202E57F204B
:100611001211347F3A12112FAF221202E5E5246440
:10062100306008120962AF24121134A294E43365D8
:10063100177002E51660030206BAE524B43014E52A
:1006410021C39417500605217D30805C75210C7DF6
:10065100418055E52464417026E521B40C077521DC
:10066100017D418043E521C3940B500605217D4165
:100671008036E521640B703575210C7D508029E5AC
:100681002464507028E521B40C077521017D508048
:1006910017E521C3940B500605217D50800AE52101
:1006A100B40B0AE4F5217D30AF21121167A294E465
:0906B1003365177002E51660F4D0
:0106BA00221D
:100DB2007533007534007535227536007537007548
:100DC2003823753900753A00753B247B007A007927
:100DD200211204E1120EB37BFF7A0179F512096840
:100DE200E4FDFC7F01FE120EBBAF211202E57F2063
:100DF2001211347F3A12112FAF221202E5E5246458
:100E0200306008120962AF24121134A294E433B59F
:100E1200171EE4B5161AE522C3943B50040522803E
:100E220003E4F522A294E43365177002E51660F438
:050E3200AF220213884D
:100A130078257C007D007BFF7A0279B87E007F0712
:100A23001200D375330075340075352275360075A1
:100A33003700753823753900753A00753B247B0000
:100A43007A007921120C97120EB37BFF7A02790593
:100A5300120968E4FDFC7F01FE120EBBAF211202F6
:100A6300E5121128AF221202E5121128AF23120258
:100A7300E57F2012113474242524F8E6FF12113483
:100A8300A294E433B5171EE4B5161AE521C3941FE7
:100A9300500405218003752101A294E43365177086
:100AA30002E51660F485242FAB23AD22AF21021299
:010AB3004200
:100AB40078257C007D007BFF7A0279BF7E007F076A
:100AC4001200D37533007534007535227536007500
:100AD4003700753823753900753A00753B247B005F
:100AE4007A007921120C97120EB37BFF7A027914E3
:100AF400120968E4FDFC7F01FE120EBBAF21120255
:100B0400E5121128AF221202E5121128AF231202B6
:100B1400E57F2012113474242524F8E6FF121134E1
:100B2400A294E433B5171EE4B5161AE522C3940C57
:100B3400500405228003752201A294E433651770E2
:100B440002E51660F485242FAB23AD22AF210212F7
:010B5400425E
:100B550078257C007D007BFF7A0279C67E007F07C1
:100B65001200D3753300753400753522753600755E
:100B75003700753823753900753A00753B247B00BD
:100B85007A007921120C97120EB37BFF7A02792530
:100B9500120968E4FDFC7F01FE120EBBAF211202B3
:100BA500E5121128AF221202E5121128AF23120215
:100BB500E57F2012113474242524F8E6FF12113440
:100BC500A294E433B5171EE4B5161AE523C394635E
:100BD500500405238003752301A294E4336517703F
:100BE50002E51660F485242FAB23AD22AF21021256
:010BF50042BD
:100BF60078257C007D007BFF7A0279CD7E007F0719
:100C06001200D375330075340075352275360075BC
:100C16003700753823753900753A00753B247B001B
:100C26007A007921120C97120EB37BFF7A0279357E
:100C3600120968E4FDFC7F01FE120EBBAF21120211
:100C4600E5121128AF221202E5121128AF23120273
:100C5600E57F2012113474242524F8E6FF1211349E
:100C6600A294E433B5171EE4B5161AE524C3940717
:100C7600500405248003752401A294E4336517709B
:100C860002E51660F485242FAB23AD22AF210212B4
:010C9600421B
:10104000AF0C12130B121307120EB17BFF7A027949
:1010500046120968E4FDFC7F01FE120EBBAF1012C0
:1010600002E51202D4A294E433B5171EE4B5161AB1
:10107000E510C39417500405108003E4F510A29402
:10108000E43365177002E51660F4AD10AF0C02137F
:011090006FF0
:10109100AF0C12130B121307120EB17BFF7A0279F8
:1010A10056120968E4FDFC7F01FE120EBBAF10125F
:1010B10002E51202D4A294E433B5171EE4B5161A60
:1010C100E515C3943B500405158003E4F515A2947E
:1010D100E43365177002E51660F4AD15AF0D021328
:0110E1006F9F
:100F1C00AF0E12130B8F11AF0F12130B8F12120E89
:100F2C00B37BFF7A027966120968E4FDFC7F01FE4F
:100F3C00120EBBAF111202E57F201211347F3A1250
:100F4C00112FAF121202E5A294E433B5171EE4B5CB
:100F5C00161AE511C39417500405118003E4F5111A
:100F6C00A294E43365177002E51660F4AD11AF0E70
:030F7C0002136FEE
:100F7F00AF0E12130B8F11AF0F12130B8F12120E26
:100F8F00B37BFF7A027977120968E4FDFC7F01FEDB
:100F9F00120EBBAF111202E57F201211347F3A12ED
:100FAF00112FAF121202E5A294E433B5171EE4B568
:100FBF00161AE512C3943B500405128003E4F51290
:100FCF00A294E43365177002E51660F4AD12AF0F0B
:030FDF0002136F8B
:100E370075330075340075352275360075370075C2
:100E47003823753900753A00753B247B007A0079A1
:100E5700211204E1AF0C12130B1213078F15AF0EFB
:100E670012130B8F11AF0F12130B8F12E521C395BE
:100E7700104034E5102511FFE433FED3E5219FEE42
:100E87006480F8748098501FE522C395154018E5D3
:100E9700152512FFE433FED3E5229FEE6480F87434
:090EA70080985003D29722C297F3
:010EB000221F
:1003E100E4F50CE50C04F50D04F50E04F50FE4FD40
:1003F100AF0C12136F7D01AF0D12136FE4FDAF0E41
:1004010012136F7D03AF0F12136F121356120EB634
:100411007BFF7A027988120968E4FDFC7F01FE12F4
:100421000EBB7BFF7A0279951209681213AE7B1E0F
:100431007D3B7F171212D8752F017B137D0C7F1F17
:100441001212427FE87E0312133DC297121274E525
:100451000A7066E50B14B40A00505E90046A75F0E8
:1004610003A4C58325F0C5837302048802048D02A9
:10047100049202049702049C0204A10204A602044D
:10048100AB0204B00204B51205D18033120DB28063
:100491002E120A138029120AB48024120B55801FD0
:1004A100120BF6801A121040801512109180101252
:1004B1000F1C800B120F7F80061207A11210E2128F
:1004C10012A6E50945087006120E3702044DE5092A
:1004D100640145087005C29702044DD29702044D8C
:100D32000203E1E493A3F8E493A34003F68001F2F3
:100D420008DFF48029E493A3F85407240CC8C333C2
:100D5200C4540F4420C8834004F456800146F6DF91
:100D6200E4800B010204081020408090139DE47E71
:100D7200019360BCA3FF543F30E509541FFEE49386
:100D8200A360010ECF54C025E060A840B8E493A34D
:100D9200FAE493A3F8E493A3C8C582C8CAC583CA78
:100DA200F0A3C8C582C8CAC583CADFE9DEE780BE30
:0113AD00003F
:10000300E709F608DFFA8046E709F208DFFA803EDF
:1000130088828C83E709F0A3DFFA8032E309F608CC
:10002300DFFA8078E309F208DFFA807088828C8334
:10003300E309F0A3DFFA806489828A83E0A3F608E8
:10004300DFFA805889828A83E0A3F208DFFA804CC2
:1000530080D280FA80C680D4806980F28033801099
:1000630080A680EA809A80A880DA80E280CA803302
:1000730089828A83ECFAE493A3C8C582C8CCC5837A
:10008300CCF0A3C8C582C8CCC583CCDFE9DEE7804A
:100093000D89828A83E493A3F608DFF9ECFAA9F0C9
:1000A300EDFB2289828A83ECFAE0A3C8C582C8CC1F
:1000B300C583CCF0A3C8C582C8CCC583CCDFEADE38
:1000C300E880DB89828A83E493A3F208DFF980CC9A
:1000D30088F0EF60010E4E60C388F0ED2402B40493
:1000E3000050B9F582EB2402B4040050AF2323453A
:0600F3008223900053730C
:1000F900BB010CE58229F582E5833AF583E02250BC
:1001090006E92582F8E622BBFE06E92582F8E22205
:0D011900E58229F582E5833AF583E493221F
:10012600BB010689828A83F0225002F722BBFE01B8
:02013600F322B2
:10013800EF8DF0A4A8F0CF8CF0A428CE8DF0A42EDB
:02014800FE2295
:10014A00BC000BBE0029EF8DF084FFADF022E4CC99
:10015A00F875F008EF2FFFEE33FEEC33FCEE9DEC62
:10016A00984005FCEE9DFE0FD5F0E9E4CEFD22EDA8
:10017A00F8F5F0EE8420D21CFEADF075F008EF2FF2
:10018A00FFED33FD4007985006D5F0F222C398FDE3
:05019A000FD5F0EA2280
:00000001FF
