:030000000202AE4B
:0C02AE00787FE4F6D8FD75811C0202F593
:1004010041646472657373204552524F520020005B
:10041100383035312050726F6A656374004144434E
:1004210020496E746572666163696E670041444379
:100431002076616C75650054656D702076616C7510
:02044100650054
:0804D70002190002021B0001E2
:0404A1007F327E0028
:1004A500EF4E60147D737C00ED1D70011CED4C70EA
:0804B500F7EF1F70EB1E80E859
:0104BD00221C
:10044300C286D287E519701FE51A14600E14600F77
:10045300146010240370108F80800E8F90800A8F99
:0F046300A080068FB080028F801204A1C2872272
:1004BE007F381204437F021204437F011204437FEC
:0904CE000C1204437F06020443F2
:10047200D286D287E519701FE51A14600E14600F38
:10048200146010240370108F80800E8F90800A8F6A
:0F049200A080068FB080028F801204A1C2872243
:0600DC007BFF7A04790F9E
:0600E2008B0E8A0F89104D
:1000E800E4F511F512AB0EAA0FA91085128285113D
:1000F80083120189600A0512E51270E9051180E58D
:10010800E4F513F514C3E5149512E5139511507031
:10011800D286D287E519700DE51A14600A14601AA0
:1001280014602A24038039AB0EAA0FA91085148203
:10013800851383120189F5908037AB0EAA0FA91099
:10014800851482851383120189F5A08024AB0EAA39
:100158000FA910851482851383120189F5B08011C7
:10016800AB0EAA0FA910851482851383120189F595
:10017800801204A1C2870514E514708905138085CF
:010188002254
:0504E0007F010204434E
:08033A001204E0E4FDFCFFFEEB
:080342008E088F098C0A8D0B57
:10034A00E50945087019D3E50B940FE50A940050A6
:10035A0006E50B2480801F750C00750D808029E549
:10036A0009640145087028D3E50B940FE50A940047
:10037A005010E50B24C0F50DE4350AF50CAF0D025B
:10038A000443750C00750DC0AF0D12044380007B49
:08039A00FF7A0479011200E270
:0103A2002238
:04000300AB07AA0697
:10000700E4F508F509F50AF50BEB4A60397C007D44
:100017000AAF03AE021201C88C838D82AE08AF0906
:100027007C007D0A1201B6EF2582F509EE3583F5CE
:1000370008AF03AE021201C8AA06AB07050BE50B12
:1000470070C7050A80C3E4FBFAC3EB950BEA950A70
:10005700502BAE08AF097C007D0A1201C8ED243091
:10006700FF740C2BF8A607AE08AF097C007D0A12B7
:1000770001C88E088F090BBB00010A80CC740C25C0
:100087000BF8E4F6FAFBC3EB950BEA950A5045D259
:1000970086D287E519700DE51A14600A14601014EA
:1000A70060162403801B740C2BF8E6F590801974F6
:1000B7000C2BF8E6F5A08010740C2BF8E6F5B08051
:1000C70007740C2BF8E6F5801204A1C2870BBB005E
:0400D700010A80B2E8
:0100DB002202
:0403A3008E158F160E
:1003A700E516451570237F801204437517007518ED
:1003B700011200DC0518E51870020517D39410E543
:1003C70017940040EC7F80802DE516640145157079
:1003D700237FC01204437517007518011200DC054E
:1003E70018E51870020517D39410E517940040EC30
:0903F7007FC080027F0112044363
:0104000022D9
:10021D001204BE12033D7BFF7A0479111200E2E451
:10022D00FDFC7F01FE1203427BFF7A04791E120052
:10023D00E27FE87E031204A5D280C2817F647E0036
:10024D001204A5D2812082FD7F647E001204A5C216
:10025D0080D28212033A7BFF7A04792E1200E2E4F7
:10026D00FDFC7F01FE120342AF907E001200037F62
:10027D00E87E031204A512033A7BFF7A0479381243
:10028D0000E2E4FDFC7F01FE120342AF90EF75F03A
:10029D0002A4FFAEF01200037FE87E031204A580D6
:0102AD0097B9
:1002BA0002021DE493A3F8E493A34003F68001F23B
:1002CA0008DFF48029E493A3F85407240CC8C33345
:1002DA00C4540F4420C8834004F456800146F6DF14
:1002EA00E4800B01020408102040809004D7E47EC9
:1002FA00019360BCA3FF543F30E509541FFEE49309
:10030A00A360010ECF54C025E060A840B8E493A3CF
:10031A00FAE493A3F8E493A3C8C582C8CAC583CAFA
:10032A00F0A3C8C582C8CAC583CADFE9DEE780BEB2
:0104DF00001C
:10018900BB010CE58229F582E5833AF583E022502B
:1001990006E92582F8E622BBFE06E92582F8E22275
:0D01A900E58229F582E5833AF583E493228F
:1001B600EF8DF0A4A8F0CF8CF0A428CE8DF0A42E5D
:0201C600FE2217
:1001C800BC000BBE0029EF8DF084FFADF022E4CC1B
:1001D800F875F008EF2FFFEE33FEEC33FCEE9DECE4
:1001E800984005FCEE9DFE0FD5F0E9E4CEFD22ED2A
:1001F800F8F5F0EE8420D21CFEADF075F008EF2F74
:10020800FFED33FD4007985006D5F0F222C398FD64
:050218000FD5F0EA2201
:00000001FF
