:03000000020B8F61
:0C0B8F00787FE4F6D8FD75811402093F60
:100AFC0041646472657373204552524F520020005A
:100B0C0048656C6C6F20536574680057656C636F37
:100B1C006D6500383035312050726F6A6563740032
:100B2C004C434420496E746572666163696E67005C
:100B3C0052616E646F6D204E756D6265720050650A
:090B4C007263656E746167650057
:080B5500D2918FA07F327E00D7
:100B5D00EF4E60147D737C00ED1D70011CED4C702B
:080B6D00F7EF1F70EB1E80E89A
:010B7500225D
:080B9B00C290120B55C2912219
:100B76007F38120B9B7F02120B9B7F01120B9B7F10
:090B86000C120B9B7F06020B9B75
:080BA300D290120B55C2912201
:060A3D007BFF7A0B790A31
:060A43008B0E8A0F8910E2
:100A4900E4F511F512AB0EAA0FA9108512828511D2
:100A5900831208AB600A0512E51270E9051180E5F9
:100A6900E4F513F514C3E5149512E5139511502413
:100A7900D290D291AB0EAA0FA91085148285138347
:100A89001208ABF5A0120B59C2910514E51470D5E3
:040A9900051380D1F0
:010A9D002236
:050BAB007F01020B9B1D
:0F09CD007FE87E03120B5D120BABE4FDFCFFFE17
:0809DC008E088F098C0A8D0BB7
:1009E400E50945087019D3E50B940FE50A94005006
:1009F40006E50B2480801F750C00750D808029E5A9
:100A040009640145087028D3E50B940FE50A9400A6
:100A14005010E50B24C0F50DE4350AF50CAF0D02BA
:100A24000B9B750C00750DC0AF0D120B9B80007BEA
:080A3400FF7A0A79FC120A4363
:010A3C002297
:04080000AB07AA0692
:10080400E4F508F509F50AF50BEB4A60397C007D3F
:100814000AAF03AE021208EA8C838D82AE08AF09D8
:100824007C007D0A1208D8EF2582F509EE3583F5A0
:1008340008AF03AE021208EAAA06AB07050BE50BE4
:1008440070C7050A80C3E4FBFAC3EB950BEA950A6B
:10085400502BAE08AF097C007D0A1208EAED243063
:10086400FF740C2BF8A607AE08AF097C007D0A12B2
:1008740008EA8E088F090BBB00010A80CC740C2592
:100884000BF8E4F6FAFBC3EB950BEA950A5017D282
:1008940090D291740C2BF8E6F5A0120B59C2910B6F
:0608A400BB00010A80E028
:0108AA00222B
:040A9E008E088F0926
:100AA200E509450870237F80120B9B750A00750BC0
:100AB20001120A3D050BE50B7002050AD39410E5FD
:100AC2000A940040EC7F80802DE50964014508709E
:100AD200237FC0120B9B750A00750B01120A3D059C
:100AE2000BE50B7002050AD39410E50A940040EC62
:090AF2007FC080027F01120B9B02
:010AFB0022D8
:10093F00120B761209D47BFF7A0B790C120A43E45F
:10094F00FDFC7F01FE1209DC7BFF7A0B7917120A7F
:10095F00431209CD7BFF7A0B791F120A43E4FDFC8A
:10096F007F01FE1209DC7BFF7A0B792C120A4312EE
:10097F0009CD7BFF7A0B793C120A43E4FDFC7F0122
:10098F00FE1209DC7F927EEA1208007FE87E0312D6
:10099F000B5DE4FFFE120A9E7BFF7A0B794A120A67
:1009AF00437F017E00120A9E7F557E001208007F52
:0E09BF0025120BA37FE87E03120B5D02094296
:1008AB00BB010CE58229F582E5833AF583E0225002
:1008BB0006E92582F8E622BBFE06E92582F8E2224C
:0D08CB00E58229F582E5833AF583E4932266
:1008D800EF8DF0A4A8F0CF8CF0A428CE8DF0A42E34
:0208E800FE22EE
:1008EA00BC000BBE0029EF8DF084FFADF022E4CCF2
:1008FA00F875F008EF2FFFEE33FEEC33FCEE9DECBB
:10090A00984005FCEE9DFE0FD5F0E9E4CEFD22ED00
:10091A00F8F5F0EE8420D21CFEADF075F008EF2F4A
:10092A00FFED33FD4007985006D5F0F222C398FD3B
:05093A000FD5F0EA22D8
:00000001FF
