:03000000020B816F
:0C0B8100787FE4F6D8FD75814D020BC8AA
:100DD90041646472657373204552524F520020007A
:070DE9004C4344204F4E0073
:100D100002260002020A0003022400040208000462
:100D200008280000000100020003080C0004000570
:100D30000006000710143738392F34353678313231
:060D4000332D43303D2B72
:040DA3007F327E001D
:100DA700EF4E60147D737C00ED1D70011CED4C70DF
:080DB700F7EF1F70EB1E80E84E
:010DBF002211
:100D4700C290D291E526701FE52714600E14600F3C
:100D5700146010240370108F80800E8F90800A8F8C
:0F0D6700A080068FB080028F80120DA3C2912250
:100DC0007F38120D477F02120D477F01120D477FBA
:090DD0000C120D477F06020D47CD
:0D0CD400AE82EE25E025E024142BF8E6FFAB
:100CE100D290D291E526701FE52714600E14600F93
:100CF100146010240370108F80800E8F90800A8FF3
:0F0D0100A080068FB080028F80120DA3C29122B6
:060A40007BFF7A0D79E74F
:060A46008B388A39893A61
:100A4C00E4F53BF53CAB38AA39A93A853C82853BA9
:100A5C0083120AED600A053CE53C70E9053B80E534
:100A6C00E4F53DF53EC3E53E953CE53D953B5070C8
:100A7C00D290D291E526700DE52714600A14601A05
:100A8C0014602A24038039AB38AA39A93A853E82EE
:100A9C00853D83120AEDF5908037AB38AA39A93A17
:100AAC00853E82853D83120AEDF5A08024AB38AAE1
:100ABC0039A93A853E82853D83120AEDF5B0801145
:100ACC00AB38AA39A93A853E82853D83120AEDF5E9
:100ADC0080120DA3C291053EE53E7089053D8085CF
:010AEC0022E7
:050DF0007F01020D4728
:080C0D00120DF0E4FDFCFFFEF6
:080C15008E328F338C348D35D3
:100C1D00E53345327019D3E535940FE53494005022
:100C2D0006E5352480801F7536007537808029E5EF
:100C3D0033640145327028D3E535940FE5349400C3
:100C4D005010E53524C0F537E43534F536AF3702AD
:100C5D000D477536007537C0AF37120D4780007BD5
:080C6D00FF7A0D79D9120A4645
:010C7500225C
:04096700AB07AA062A
:10096B00E4F53FF540F541F542EB4A60397C007DFB
:10097B000AAF03AE02120B2C8C838D82AE3FAF40BD
:10098B007C007D0A120B1AEF2582F540EE3583F5BC
:10099B003FAF03AE02120B2CAA06AB070542E54292
:1009AB0070C7054180C3E4FBFAC3EB9542EA95415E
:1009BB00502BAE3FAF407C007D0A120B2CED243048
:1009CB00FF74432BF8A607AE3FAF407C007D0A12A5
:1009DB000B2C8E3F8F400BBB00010A80CC74432540
:1009EB0042F8E4F6FAFBC3EB9542EA95415045D247
:1009FB0090D291E526700DE52714600A146010144F
:100A0B0060162403801B74432BF8E6F59080197451
:100A1B00432BF8E6F5A0801074432BF8E6F5B08075
:100A2B000774432BF8E6F580120DA3C2910BBB00A4
:040A3B00010A80B27A
:010A3F002294
:040C76008E488F49CC
:100C7A00E549454870237F80120D47754A00754B38
:100C8A0001120A40054BE54B7002054AD39410E560
:100C9A004A940040EC7F80802DE549640145487004
:100CAA00237FC0120D47754A00754B01120A400591
:100CBA004BE54B7002054AD39410E54A940040EC88
:090CCA007FC080027F01120D477A
:010CD30022FE
:10000300E4F534F535E50B450A60030200D9F53212
:10001300F533C3E5339525E53295244003020352B6
:10002300E53325E02428F808E6FFF8740108800288
:10003300C333D8FCF45280E4FAFBC3EB9525EA956D
:10004300245026E5336B7003E5326A6015EB25E037
:100053002428F808E6FFF87401088002C333D8FCAB
:1000630042800BBB00010A80D1E4FCFDC3ED95097E
:10007300EC95085056ED25E0240CF808E6FF7E00C9
:100083007401A807088005C333CE33CED8F9FFA97E
:1000930080E9F582EF5582702BF534753501ED2536
:1000A300E0240CF808E6FF7E007401A80708800529
:1000B300C333CE33CED8F9FFA980E9F582EF558259
:1000C300700980DA0DBD00010C80A10533E53370A2
:1000D300020532020015E50B6401450A60030201C3
:1000E300ACF532F533C3E5339525E532952440036A
:1000F300020352E53325E02428F808E6FFF87401EB
:10010300088002C333D8FCF45290E4FAFBC3EB95A6
:1001130025EA95245026E5336B7003E5326A6015B2
:10012300EB25E02428F808E6FFF87401088002C3F1
:1001330033D8FC42900BBB00010A80D1E4FCFDC321
:10014300ED9509EC95085056ED25E0240CF808E6EA
:10015300FF7E007401A807088005C333CE33CED8D1
:10016300F9FFA990E9F582EF5582702BF5347535C7
:1001730001ED25E0240CF808E6FF7E007401A807D2
:10018300088005C333CE33CED8F9FFA990E9F582B1
:10019300EF5582700980DA0DBD00010C80A1053393
:1001A300E533700205320200E8E50B6402450A609C
:1001B3000302027FF532F533C3E5339525E5329526
:1001C300244003020352E53325E02428F808E6FF20
:1001D300F87401088002C333D8FCF452A0E4FAFB9C
:1001E300C3EB9525EA95245026E5336B7003E5327E
:1001F3006A6015EB25E02428F808E6FFF874010887
:100203008002C333D8FC42A00BBB00010A80D1E4B7
:10021300FCFDC3ED9509EC95085056ED25E0240C43
:10022300F808E6FF7E007401A807088005C333CEF3
:1002330033CED8F9FFA9A0E9F582EF5582702BF5EB
:1002430034753501ED25E0240CF808E6FF7E0074D3
:1002530001A807088005C333CE33CED8F9FFA9A080
:10026300E9F582EF5582700980DA0DBD00010C803B
:10027300A10533E533700205320201BBE50B6403CC
:10028300450A6003020352F532F533C3E53395257E
:10029300E53295244003020352E53325E02428F890
:1002A30008E6FFF87401088002C333D8FCF452B0A7
:1002B300E4FAFBC3EB9525EA95245026E5336B70EE
:1002C30003E5326A6015EB25E02428F808E6FFF819
:1002D3007401088002C333D8FC42B00BBB00010A8F
:1002E30080D1E4FCFDC3ED9509EC95085056ED254E
:1002F300E0240CF808E6FF7E007401A807088005D7
:10030300C333CE33CED8F9FFA9B0E9F582EF5582D6
:10031300702BF534753501ED25E0240CF808E6FF64
:100323007E007401A807088005C333CE33CED8F905
:10033300FFA9B0E9F582EF5582700980DA0DBD009F
:10034300010C80A10533E5337002053202028EAE43
:0303530034AF358F
:010356002284
:10068A00E50B450A600302073FF583F582C3E5825D
:10069A009525E58395244003020964AF82EF25E09E
:1006AA002428F808E6FFF87401088002C333D8FC4E
:1006BA00F45280E4F54CF54DC3E54D9525E54C958E
:1006CA0024502CE582654D7004E583654C6016E57F
:1006DA004D25E02428F808E6FFF87401088002C3D3
:1006EA0033D8FC4280054DE54D70CD054C80C9E4F8
:1006FA00FAFBC3EB9509EA95085036EB25E0240C82
:10070A00F808E6FF7E007401A807088005C333CE07
:10071A0033CED8F9FFAD80EF5D700FAE82EE25E0E3
:10072A0025E024142BF8E6F980070BBB00010A80A8
:10073A00C1A3020697E50B6401450A60030207F6A6
:10074A00F583F582C3E5829525E583952440030266
:10075A000964AF82EF25E02428F808E6FFF874015F
:10076A00088002C333D8FCF45290E4F54CF54DC32B
:10077A00E54D9525E54C9524502CE582654D700490
:10078A00E583654C6016E54D25E02428F808E6FF68
:10079A00F87401088002C333D8FC4290054DE54D38
:1007AA0070CD054C80C9E4FAFBC3EB9509EA9508BC
:1007BA005036EB25E0240CF808E6FF7E007401A809
:1007CA0007088005C333CE33CED8F9FFAD90EF5D6D
:1007DA00700FAE82EE25E025E024142BF8E6F980AE
:1007EA00070BBB00010A80C1A302074EE50B640296
:1007FA00450A60030208ADF583F582C3E5829525B3
:10080A00E58395244003020964AF82EF25E024289A
:10081A00F808E6FFF87401088002C333D8FCF452E2
:10082A00A0E4F54CF54DC3E54D9525E54C952450CE
:10083A002CE582654D7004E583654C6016E54D250F
:10084A00E02428F808E6FFF87401088002C333D8C8
:10085A00FC42A0054DE54D70CD054C80C9E4FAFB7C
:10086A00C3EB9509EA95085036EB25E0240CF80805
:10087A00E6FF7E007401A807088005C333CE33CE95
:10088A00D8F9FFADA0EF5D700FAE82EE25E025E04E
:10089A0024142BF8E6F980070BBB00010A80C1A3D8
:1008AA00020805E50B6403450A6003020964F5833F
:1008BA00F582C3E5829525E5839524400302096400
:1008CA00AF82EF25E02428F808E6FFF874010880D3
:1008DA0002C333D8FCF452B0E4F54CF54DC3E54DF0
:1008EA009525E54C9524502CE582654D7004E583E9
:1008FA00654C6016E54D25E02428F808E6FFF874F3
:10090A0001088002C333D8FC42B0054DE54D70CDD5
:10091A00054C80C9E4FAFBC3EB9509EA9508503601
:10092A00EB25E0240CF808E6FF7E007401A807080E
:10093A008005C333CE33CED8F9FFADB0EF5D700F6B
:10094A00AE82EE25E025E024142BF8E6F980070BA9
:0C095A00BB00010A80C1A30208BCAF0171
:01096600226E
:10035700E50B450A6003020422F583F582C3E582B3
:100367009525E58395244003020689AF82EF25E0B2
:100377002428F808E6FFF87401088002C333D8FC84
:10038700F45280E4F532F533C3E5339525E532952C
:1003970024502CE58265337004E58365326016E5E9
:1003A7003325E02428F808E6FFF87401088002C323
:1003B70033D8FC42800533E53370CD053280C9E47C
:1003C700FAFBC3EB9509EA9508504CEB25E0240CA2
:1003D700F808E6FF7E007401A807088005C333CE3E
:1003E70033CED8F9FFAD80EF5D7025120CD4EB2525
:1003F700E0240CF808E6FF7E007401A807088005D2
:10040700C333CE33CED8F9FFAD80EF5D700980DE00
:100417000BBB00010A80ABA3020364E50B64014533
:100427000A60030204EFF583F582C3E5829525E5AB
:100437008395244003020689AF82EF25E02428F83C
:1004470008E6FFF87401088002C333D8FCF4529021
:10045700E4F532F533C3E5339525E5329524502C81
:10046700E58265337004E58365326016E53325E080
:100477002428F808E6FFF87401088002C333D8FC83
:1004870042900533E53370CD053280C9E4FAFBC3EA
:10049700EB9509EA9508504CEB25E0240CF808E6A3
:1004A700FF7E007401A807088005C333CE33CED87A
:1004B700F9FFAD90EF5D7025120CD4EB25E0240C0D
:1004C700F808E6FF7E007401A807088005C333CE4D
:1004D70033CED8F9FFAD90EF5D700980DE0BBB001E
:1004E700010A80ABA3020431E50B6402450A6003ED
:1004F7000205BCF583F582C3E5829525E58395243E
:100507004003020689AF82EF25E02428F808E6FFBA
:10051700F87401088002C333D8FCF452A0E4F53222
:10052700F533C3E5339525E5329524502CE58265EF
:10053700337004E58365326016E53325E02428F837
:1005470008E6FFF87401088002C333D8FC42A0050F
:1005570033E53370CD053280C9E4FAFBC3EB950967
:10056700EA9508504CEB25E0240CF808E6FF7E00DE
:100577007401A807088005C333CE33CED8F9FFAD81
:10058700A0EF5D7025120CD4EB25E0240CF808E6EB
:10059700FF7E007401A807088005C333CE33CED889
:1005A700F9FFADA0EF5D700980DE0BBB00010A808B
:1005B700ABA30204FEE50B6403450A600302068948
:1005C700F583F582C3E5829525E5839524400302EB
:1005D7000689AF82EF25E02428F808E6FFF87401C2
:1005E700088002C333D8FCF452B0E4F532F533C3C4
:1005F700E5339525E5329524502CE5826533700463
:10060700E58365326016E53325E02428F808E6FF20
:10061700F87401088002C333D8FC42B00533E533D0
:1006270070CD053280C9E4FAFBC3EB9509EA95085A
:10063700504CEB25E0240CF808E6FF7E007401A877
:1006470007088005C333CE33CED8F9FFADB0EF5DD1
:100657007025120CD4EB25E0240CF808E6FF7E0089
:100667007401A807088005C333CE33CED8F9FFAD90
:10067700B0EF5D700980DE0BBB00010A80ABA302FF
:0206870005CBA1
:01068900224E
:100D7600120DC0120C0D7BFF7A0D79E9120A467F1F
:100D8600E87E03120DA7120C0D1200038E308F3170
:0D0D9600E5316401453070F112035780F320
:100B8D00020D76E493A3F8E493A34003F68001F2FB
:100B9D0008DFF48029E493A3F85407240CC8C33369
:100BAD00C4540F4420C8834004F456800146F6DF38
:100BBD00E4800B0102040810204080900D10E47EAB
:100BCD00019360BCA3FF543F30E509541FFEE4932D
:100BDD00A360010ECF54C025E060A840B8E493A3F4
:100BED00FAE493A3F8E493A3C8C582C8CAC583CA1F
:100BFD00F0A3C8C582C8CAC583CADFE9DEE780BED7
:010D460000AC
:100AED00BB010CE58229F582E5833AF583E02250BE
:100AFD0006E92582F8E622BBFE06E92582F8E22208
:0D0B0D00E58229F582E5833AF583E4932221
:100B1A00EF8DF0A4A8F0CF8CF0A428CE8DF0A42EEF
:020B2A00FE22A9
:100B2C00BC000BBE0029EF8DF084FFADF022E4CCAD
:100B3C00F875F008EF2FFFEE33FEEC33FCEE9DEC76
:100B4C00984005FCEE9DFE0FD5F0E9E4CEFD22EDBC
:100B5C00F8F5F0EE8420D21CFEADF075F008EF2F06
:100B6C00FFED33FD4007985006D5F0F222C398FDF7
:050B7C000FD5F0EA2294
:00000001FF
