:03000000020C33BC
:0C0C3300787FE4F6D8FD758143020C7A4E
:100D860041646472657373204552524F52002000CD
:100D96004C4344204F4E00313233343536373839E0
:100DA6002A302300040005000600070000000100A9
:010DB600023A
:040E50000242000258
:040E15007F327E00AA
:100E1900EF4E60147D737C00ED1D70011CED4C706C
:080E2900F7EF1F70EB1E80E8DB
:010E3100229E
:100DB700C290D291E542701FE54314600E14600F94
:100DC700146010240370108F80800E8F90800A8F1C
:0F0DD700A080068FB080028F80120E15C291226D
:100E32007F38120DB77F02120DB77F01120DB77FF7
:090E42000C120DB77F06020DB77A
:100DE600D290D291E542701FE54314600E14600F55
:100DF600146010240370108F80800E8F90800A8FED
:0F0E0600A080068FB080028F80120E15C291223D
:060B86007BFF7A0D79945B
:060B8C008B2E8A2F893038
:100B9200E4F531F532AB2EAA2FA9308532828531A8
:100BA200831208F6600A0532E53270E9053180E504
:100BB200E4F533F534C3E5349532E53395315070BD
:100BC200D290D291E542700DE54314600A14601A86
:100BD20014602A24038039AB2EAA2FA930853482CF
:100BE2008533831208F6F5908037AB2EAA2FA930F1
:100BF2008534828533831208F6F5A08024AB2EAAB1
:100C02002FA9308534828533831208F6F5B080111E
:100C1200AB2EAA2FA9308534828533831208F6F5CC
:100C220080120E15C2910534E53470890533808532
:010C3200229F
:050E4B007F01020DB75C
:080CBF00120E4BE4FDFCFFFEE8
:080CC7008E288F298C2A8D2B49
:100CCF00E52945287019D3E52B940FE52A94005098
:100CDF0006E52B2480801F752C00752D808029E55B
:100CEF0029640145287028D3E52B940FE52A940039
:100CFF005010E52B24C0F52DE4352AF52CAF2D022D
:100D0F000DB7752C00752DC0AF2D120DB780007B60
:080D1F00FF7A0D7986120B8C9E
:010D270022A9
:040AAD00AB07AA06E3
:100AB100E4F535F536F537F538EB4A60397C007DDC
:100AC1000AAF03AE021209358C838D82AE35AF3683
:100AD1007C007D0A120923EF2582F536EE3583F578
:100AE10035AF03AE02120935AA06AB070538E53862
:100AF10070C7053780C3E4FBFAC3EB9538EA953735
:100B0100502BAE35AF367C007D0A120935ED24300D
:100B1100FF74392BF8A607AE35AF367C007D0A127B
:100B210009358E358F360BBB00010A80CC7439250F
:100B310038F8E4F6FAFBC3EB9538EA95375045D21D
:100B410090D291E542700DE54314600A14601014CF
:100B510060162403801B74392BF8E6F59080197414
:100B6100392BF8E6F5A0801074392BF8E6F5B08042
:100B71000774392BF8E6F580120E15C2910BBB00F4
:040B8100010A80B233
:010B8500224D
:040D28008E3E8F3F2D
:100D2C00E53F453E70237F80120DB775400075413D
:100D3C0001120B860541E54170020540D39410E584
:100D4C0040940040EC7F80802DE53F6401453E706F
:100D5C00237FC0120DB7754000754101120B86053B
:100D6C0041E54170020540D39410E540940040ECFD
:090D7C007FC080027F01120DB757
:010D8500224B
:10098A0078087C007D007BFF7A0D799D7E007F0CC4
:10099A001208D075140075150378167C007D007B4B
:1009AA00FF7A0D79A97E007F081208D0781E7C0094
:1009BA007D007BFF7A0D79B17E007F061208D07523
:1009CA002400752504752600752703120E32120CB1
:1009DA00BF7BFF7A0D7996120B8C7FE87E03120E8D
:1009EA0019120CBFE4FBFAC3EB9525EA952450F4DF
:1009FA00EB25E02416F808E6FFF87401088002C324
:100A0A0033D8FCF452B0E4FFFEC3EF9525EE9524EB
:100A1A005024EB6F7002EA6E6015EF25E02416F899
:100A2A0008E6FDF87401088002C333D8FC42B00F0F
:100A3A00BF00010E80D3900000C3E5829527E583AD
:100A4A0095265057AF82EF25E0241EF808E6FF7E70
:100A5A00007401A807088005C333CE33CED8F9FF46
:100A6A00ADB0EF5D7032AF82EB75F003A424082FAE
:100A7A00F8E6FF120DE6AF82EF25E0241EF808E63D
:100A8A00FF7E007401A807088005C333CE33CED891
:100A9A00F9FFADB0EF5D60DEA3809E0BBB00010ADB
:030AAA000209F14D
:100C3F0002098AE493A3F8E493A34003F68001F238
:100C4F0008DFF48029E493A3F85407240CC8C333B6
:100C5F00C4540F4420C8834004F456800146F6DF85
:100C6F00E4800B0102040810204080900E50E47EB7
:100C7F00019360BCA3FF543F30E509541FFEE4937A
:100C8F00A360010ECF54C025E060A840B8E493A341
:100C9F00FAE493A3F8E493A3C8C582C8CAC583CA6C
:100CAF00F0A3C8C582C8CAC583CADFE9DEE780BE24
:010E5400009D
:10080000E709F608DFFA8046E709F208DFFA803EDA
:1008100088828C83E709F0A3DFFA8032E309F608C7
:10082000DFFA8078E309F208DFFA807088828C832F
:10083000E309F0A3DFFA806489828A83E0A3F608E3
:10084000DFFA805889828A83E0A3F208DFFA804CBD
:1008500080D280FA80C680D4806980F28033801094
:1008600080A680EA809A80A880DA80E280CA8033FD
:1008700089828A83ECFAE493A3C8C582C8CCC58375
:10088000CCF0A3C8C582C8CCC583CCDFE9DEE78045
:100890000D89828A83E493A3F608DFF9ECFAA9F0C4
:1008A000EDFB2289828A83ECFAE0A3C8C582C8CC1A
:1008B000C583CCF0A3C8C582C8CCC583CCDFEADE33
:1008C000E880DB89828A83E493A3F208DFF980CC95
:1008D00088F0EF60010E4E60C388F0ED2402B4048E
:1008E0000050B9F582EB2402B4040050AF23234535
:0608F00082239008507302
:1008F600BB010CE58229F582E5833AF583E02250B7
:1009060006E92582F8E622BBFE06E92582F8E22200
:0D091600E58229F582E5833AF583E493221A
:10092300EF8DF0A4A8F0CF8CF0A428CE8DF0A42EE8
:02093300FE22A2
:10093500BC000BBE0029EF8DF084FFADF022E4CCA6
:10094500F875F008EF2FFFEE33FEEC33FCEE9DEC6F
:10095500984005FCEE9DFE0FD5F0E9E4CEFD22EDB5
:10096500F8F5F0EE8420D21CFEADF075F008EF2FFF
:10097500FFED33FD4007985006D5F0F222C398FDF0
:050985000FD5F0EA228D
:00000001FF
