:0300000002021DDC
:0C021D00787FE4F6D8FD75811C020264B5
:10041D0041646472657373204552524F520020003F
:10042D00383035312050726F6A656374005350490E
:10043D002050726F746F636F6C004144432076617E
:04044D006C75650065
:0404EA00021B0002EF
:0404AF007F327E001A
:1004B300EF4E60147D737C00ED1D70011CED4C70DC
:0804C300F7EF1F70EB1E80E84B
:0104CB00220E
:10045100C290D291E51B701FE51C14600E14600F51
:10046100146010240370108F80800E8F90800A8F8B
:0F047100A080068FB080028F801204AFC291224C
:1004CC007F381204517F021204517F011204517FB4
:0904DC000C1204517F06020451C8
:10048000D290D291E51B701FE51C14600E14600F12
:10049000146010240370108F80800E8F90800A8F5C
:0F04A000A080068FB080028F801204AFC291221D
:0600DC007BFF7A04792B82
:0600E2008B108A11891247
:1000E800E4F513F514AB10AA11A91285148285132F
:1000F80083120189600A0514E51470E9051380E587
:10010800E4F515F516C3E5169514E5159513507025
:10011800D290D291E51B700DE51C14600A14601A88
:1001280014602A24038039AB10AA11A912851682FB
:10013800851583120189F5908037AB10AA11A91291
:10014800851682851583120189F5A08024AB10AA33
:1001580011A912851682851583120189F5B08011BF
:10016800AB10AA11A912851682851583120189F58B
:10017800801204AFC2910516E516708905158085B1
:010188002254
:0504E5007F010204513B
:0802A9001204E5E4FDFCFFFE78
:0802B1008E0A8F0B8C0C8D0DE1
:1002B900E50B450A7019D3E50D940FE50C94005030
:1002C90006E50D2480801F750E00750F808029E5D5
:1002D9000B6401450A7028D3E50D940FE50C9400D1
:1002E9005010E50D24C0F50FE4350CF50EAF0F02E3
:1002F9000451750E00750FC0AF0F12045180007BB9
:08030900FF7A04791D1200E2E5
:0103110022C9
:04000300AB07AA0697
:10000700E4F50AF50BF50CF50DEB4A60397C007D3C
:100017000AAF03AE021201C88C838D82AE0AAF0B02
:100027007C007D0A1201B6EF2582F50BEE3583F5CC
:100037000AAF03AE021201C8AA06AB07050DE50D0C
:1000470070C7050C80C3E4FBFAC3EB950DEA950C6A
:10005700502BAE0AAF0B7C007D0A1201C8ED24308D
:10006700FF740E2BF8A607AE0AAF0B7C007D0A12B1
:1000770001C88E0A8F0B0BBB00010A80CC740E25BA
:100087000DF8E4F6FAFBC3EB950DEA950C5045D253
:1000970090D291E51B700DE51C14600A14601014D2
:1000A70060162403801B740E2BF8E6F590801974F4
:1000B7000E2BF8E6F5A08010740E2BF8E6F5B0804D
:1000C70007740E2BF8E6F5801204AFC2910BBB0044
:0400D700010A80B2E8
:0100DB002202
:040372008E178F183B
:10037600E518451770237F80120451751900751A08
:10038600011200DC051AE51A70020519D39410E56E
:1003960019940040EC7F80802DE5186401451770A4
:1003A600237FC0120451751900751A011200DC056D
:1003B6001AE51A70020519D39410E519940040EC59
:0903C6007FC080027F0112045186
:0103CF00220B
:10031200C295C292D293D292C292D293D292C292F6
:10032200C293D292C292C293D292C292C293D292F8
:10033200C292D293D292C292D293D2927B0B7A0081
:10034200C292309417AF037E007401A8070880059B
:10035200C333CE33CED8F94205EE4204D292EB1B20
:0F03620070011AC3EA940050D7D295AF05AE04CC
:010371002269
:1003D0001204CC1202A97BFF7A04792D1200E2E408
:1003E000FDFC7F01FE1202B17BFF7A04793A120014
:1003F000E27FE87E031204B31203128E088F091203
:1004000002A97BFF7A0479471200E2E4FDFC7F0138
:0D041000FE1202B1AF09AE0812000380DB3E
:100229000203D0E493A3F8E493A34003F68001F218
:1002390008DFF48029E493A3F85407240CC8C333D6
:10024900C4540F4420C8834004F456800146F6DFA5
:10025900E4800B01020408102040809004EAE47E47
:10026900019360BCA3FF543F30E509541FFEE4939A
:10027900A360010ECF54C025E060A840B8E493A361
:10028900FAE493A3F8E493A3C8C582C8CAC583CA8C
:10029900F0A3C8C582C8CAC583CADFE9DEE780BE44
:0104EE00000D
:10018900BB010CE58229F582E5833AF583E022502B
:1001990006E92582F8E622BBFE06E92582F8E22275
:0D01A900E58229F582E5833AF583E493228F
:1001B600EF8DF0A4A8F0CF8CF0A428CE8DF0A42E5D
:0201C600FE2217
:1001C800BC000BBE0029EF8DF084FFADF022E4CC1B
:1001D800F875F008EF2FFFEE33FEEC33FCEE9DECE4
:1001E800984005FCEE9DFE0FD5F0E9E4CEFD22ED2A
:1001F800F8F5F0EE8420D21CFEADF075F008EF2F74
:10020800FFED33FD4007985006D5F0F222C398FD64
:050218000FD5F0EA2201
:00000001FF
