:030000000201CF2B
:0C01CF00787FE4F6D8FD75811C020174F5
:1001AF00526563656976656420446174613A200025
:1001BF00507265737320616E79206B65793A2000F8
:0C01DB00759850758920758DFDD28E221C
:0801E7008F993099FDC29922A5
:060126008B188A19891AEA
:10012C00E4F51BF51CAB18AA19A91A851C82851BB2
:10013C00831200F9600A051CE51C70E9051B80E5BB
:10014C00E4FFFEC3EF951CEE951B501BAB18AA19D0
:10015C00A91A8F828E831200F9F5993099FDC299F4
:07016C000FBF00010E80DC53
:010173002269
:0801EF003098FDC298AF99227F
:1001740078087C007D007BFF7A0179BF7E007F10C8
:100184001200D31201DB7B007A00790812012612D7
:1001940001EFAD077F0D1201E77BFF7A0179AF1202
:0B01A4000126AF051201E78D9080E4FA
:10000300E709F608DFFA8046E709F208DFFA803EDF
:1000130088828C83E709F0A3DFFA8032E309F608CC
:10002300DFFA8078E309F208DFFA807088828C8334
:10003300E309F0A3DFFA806489828A83E0A3F608E8
:10004300DFFA805889828A83E0A3F208DFFA804CC2
:1000530080D280FA80C680D4806980F28033801099
:1000630080A680EA809A80A880DA80E280CA803302
:1000730089828A83ECFAE493A3C8C582C8CCC5837A
:10008300CCF0A3C8C582C8CCC583CCDFE9DEE7804A
:100093000D89828A83E493A3F608DFF9ECFAA9F0C9
:1000A300EDFB2289828A83ECFAE0A3C8C582C8CC1F
:1000B300C583CCF0A3C8C582C8CCC583CCDFEADE38
:1000C300E880DB89828A83E493A3F208DFF980CC9A
:1000D30088F0EF60010E4E60C388F0ED2402B40493
:1000E3000050B9F582EB2402B4040050AF2323453A
:0600F3008223900053730C
:1000F900BB010CE58229F582E5833AF583E02250BC
:1001090006E92582F8E622BBFE06E92582F8E22205
:0D011900E58229F582E5833AF583E493221F
:00000001FF
