:03000000020AA849
:0C0AA800787FE4F6D8FD758116020AEF95
:100C020041646472657373204552524F5200200052
:100C120048656C6C6F20536574680057656C636F30
:100C22006D6500383035312050726F6A656374002B
:100C32004C434420496E746572666163696E670055
:100C42004C75636B79204E756D62657200506572EA
:080C520063656E7461676500C3
:040CF30002150002E4
:040CB8007F327E0009
:100CBC00EF4E60147D737C00ED1D70011CED4C70CB
:080CCC00F7EF1F70EB1E80E83A
:010CD40022FD
:100C5A00C290D291E515701FE51614600E14600F4C
:100C6A00146010240370108F80800E8F90800A8F7A
:0F0C7A00A080068FB080028F80120CB8C291222A
:100CD5007F38120C5A7F02120C5A7F01120C5A7F70
:090CE5000C120C5A7F06020C5A95
:100C8900D290D291E515701FE51614600E14600F0D
:100C9900146010240370108F80800E8F90800A8F4B
:0F0CA900A080068FB080028F80120CB8C29122FB
:0608D9007BFF7A0C791090
:0608DF008B0E8A0F891048
:1008E500E4F511F512AB0EAA0FA910851282851138
:1008F50083120986600A0512E51270E9051180E583
:10090500E4F513F514C3E5149512E513951150702C
:10091500D290D291E515700DE51614600A14601A8F
:1009250014602A24038039AB0EAA0FA910851482FE
:10093500851383120986F5908037AB0EAA0FA9108F
:10094500851482851383120986F5A08024AB0EAA2F
:100955000FA910851482851383120986F5B08011BD
:10096500AB0EAA0FA910851482851383120986F58B
:1009750080120CB8C2910514E514708905138085A1
:01098500224F
:050CEE007F01020C5A19
:0F0B34007FE87E03120CBC120CEEE4FDFCFFFE0A
:080B43008E088F098C0A8D0B4E
:100B4B00E50945087019D3E50B940FE50A9400509D
:100B5B0006E50B2480801F750C00750D808029E540
:100B6B0009640145087028D3E50B940FE50A94003E
:100B7B005010E50B24C0F50DE4350AF50CAF0D0252
:100B8B000C5A750C00750DC0AF0D120C5A80007B02
:080B9B00FF7A0C79021208DF59
:010BA300222F
:04080000AB07AA0692
:10080400E4F508F509F50AF50BEB4A60397C007D3F
:100814000AAF03AE021209C58C838D82AE08AF09FC
:100824007C007D0A1209B3EF2582F509EE3583F5C4
:1008340008AF03AE021209C5AA06AB07050BE50B08
:1008440070C7050A80C3E4FBFAC3EB950BEA950A6B
:10085400502BAE08AF097C007D0A1209C5ED243087
:10086400FF740C2BF8A607AE08AF097C007D0A12B2
:1008740009C58E088F090BBB00010A80CC740C25B6
:100884000BF8E4F6FAFBC3EB950BEA950A5045D254
:1008940090D291E515700DE51614600A14601014D9
:1008A40060162403801B740C2BF8E6F590801974F1
:1008B4000C2BF8E6F5A08010740C2BF8E6F5B0804C
:1008C40007740C2BF8E6F580120CB8C2910BBB0030
:0408D400010A80B2E3
:0108D80022FD
:040BA4008E088F091F
:100BA800E509450870237F80120C5A750A00750BF9
:100BB800011208D9050BE50B7002050AD39410E55C
:100BC8000A940040EC7F80802DE509640145087097
:100BD800237FC0120C5A750A00750B011208D9053B
:100BE8000BE50B7002050AD39410E50A940040EC5B
:090BF8007FC080027F01120C5A3B
:010C010022D0
:100A1A00120CD5120B3B7BFF7A0C79121208DFE419
:100A2A00FDFC7F01FE120B437BFF7A0C791D120835
:100A3A00DF120B347BFF7A0C79251208DFE4FDFC08
:100A4A007F01FE120B437BFF7A0C79321208DF1208
:100A5A000B347BFF7A0C79421208DFE4FDFC7F013C
:100A6A00FE120B437F317ED41208007FE87E031208
:100A7A000CBCE4FFFE120BA47BFF7A0C794F120820
:100A8A00DF7F017E00120BA47F557E001208007FD3
:0E0A9A0025120C897FE87E03120CBC020A1D97
:100AB400020A1AE493A3F8E493A34003F68001F234
:100AC40008DFF48029E493A3F85407240CC8C33343
:100AD400C4540F4420C8834004F456800146F6DF12
:100AE400E4800B0102040810204080900CF3E47EA3
:100AF400019360BCA3FF543F30E509541FFEE49307
:100B0400A360010ECF54C025E060A840B8E493A3CD
:100B1400FAE493A3F8E493A3C8C582C8CAC583CAF8
:100B2400F0A3C8C582C8CAC583CADFE9DEE780BEB0
:010CF70000FC
:10098600BB010CE58229F582E5833AF583E0225026
:1009960006E92582F8E622BBFE06E92582F8E22270
:0D09A600E58229F582E5833AF583E493228A
:1009B300EF8DF0A4A8F0CF8CF0A428CE8DF0A42E58
:0209C300FE2212
:1009C500BC000BBE0029EF8DF084FFADF022E4CC16
:1009D500F875F008EF2FFFEE33FEEC33FCEE9DECDF
:1009E500984005FCEE9DFE0FD5F0E9E4CEFD22ED25
:1009F500F8F5F0EE8420D21CFEADF075F008EF2F6F
:100A0500FFED33FD4007985006D5F0F222C398FD5F
:050A15000FD5F0EA22FC
:00000001FF
