:03000000020808EB
:0C080800787FE4F6D8FD75814402084FAB
:1008940041646472657373204552524F52002000C4
:1008A40054696D653A2000446174653A20005365CB
:1008B400742054696D65005365742048723A2000B1
:1008C400536574204D696E733A2000536574205447
:1008D4007269676765722054696D65005365742099
:1008E400487228323468293A200038303531205093
:1008F400726F6A65637400414C41524D20434C4F02
:10090400434B000000000000000000000000000055
:03091400000000E0
:0C0F750002130002021600000208000037
:0D0DF5007F057E00120E02D2B07F057E0049
:100E0200EF4E60147D737C00ED1D70011CED4C7083
:080E1200F7EF1F70EB1E80E8F2
:010E1A0022B5
:100CD700C290D291E513701FE51414600E14600FD3
:100CE700146010240370108F80800E8F90800A8FFD
:100CF700A080068FB080028F807F327E00120E02A6
:030D0700C2912274
:100EC4007F38120CD77F02120CD77F01120CD77F08
:090ED4000C120CD77F06020CD7AA
:100D0A00D290D291E513701FE51414600E14600F8F
:100D1A00146010240370108F80800E8F90800A8FC9
:100D2A00A080068FB080028F807F327E00120E0272
:030D3A00C2912241
:0606BB007BFF7A0879A222
:0606C1008B2E8A2F893008
:1006C700E4F531F532AB2EAA2FA930853282853178
:1006D700831200F9600A0532E53270E9053180E5D9
:1006E700E4F533F534C3E5349532E5339531507489
:1006F700D290D291E513700DE51414600A14601AB4
:1007070014602A24038039AB2EAA2FA9308534829E
:100717008533831200F9F5908037AB2EAA2FA930C5
:100727008534828533831200F9F5A08024AB2EAA85
:100737002FA9308534828533831200F9F5B08011F3
:10074700AB2EAA2FA9308534828533831200F9F5A1
:10075700807F327E00120E02C2910534E534708527
:040767000533808155
:01076B00226B
:050F9E007F01020CD7E9
:08098C00120F9EE4FDFCFFFECA
:080994008E288F298C2A8D2B7F
:10099C00E52945287019D3E52B940FE52A940050CE
:1009AC0006E52B2480801F752C00752D808029E591
:1009BC0029640145287028D3E52B940FE52A94006F
:1009CC005010E52B24C0F52DE4352AF52CAF2D0263
:1009DC000CD7752C00752DC0AF2D120CD780007B59
:0809EC00FF7A0879941206C19C
:0109F40022E0
:04029B00AB07AA06FD
:10029F00E4F536F537F538F539EB4A70057F30025E
:1002AF000D0AEB4A60397C007D0AAF03AE021201E2
:1002BF004A8C838D82AE36AF377C007D0A120138AF
:1002CF00EF2582F537EE3583F536AF03AE02120117
:1002DF004AAA06AB070539E53970C7053880C3E46C
:1002EF00FBFAC3EB9539EA9538502BAE36AF377C16
:1002FF00007D0A12014AED2430FF743A2BF8A6074D
:10030F00AE36AF377C007D0A12014A8E368F370B1F
:10031F00BB00010A80CC743A2539F8E4F6FAFBC326
:10032F00EB9539EA95385049D290D291E513700D7B
:10033F00E51414600A1460101460162403801B74F3
:10034F003A2BF8E6F5908019743A2BF8E6F5A08071
:10035F0010743A2BF8E6F5B08007743A2BF8E6F5EF
:10036F00807F327E00120E02C2910BBB00010A8009
:01037F00AECF
:01038000225A
:06019F007E007D027C00E1
:0801A5008E288F298C2A8D2B76
:1001AD00E4F52CF52D85282E85292FF5347535018F
:1001BD00E52945287021F532F533C3E533952BE557
:1001CD0032952A400302029A7F30120D0A0533E55B
:1001DD003370E7053280E3E52F452E6037AE2EAF45
:1001ED002F7C007D0A12014AAA04AB05AE30AF3157
:1001FD007C007D0A120138EF2BF531EE3AF530AE69
:10020D002EAF2F12014A8E2E8F2F052DE52D70C783
:10021D00052C80C3D3E52D952BE52C952A5030C3A5
:10022D00E52B952DFFE52A952CAB07FAE4F532F574
:10023D0033C3E5339BE5329A500F7F30120D0A051B
:10024D0033E53370EC053280E8AF29AE28803BC32F
:10025D00E52D952BFFE52C952AAB07FAD3EB9400F2
:10026D00EA94004016AE34AF357C007D0A12013899
:10027D008E348F35EB1B70E41A80E1AC34AD35AEA6
:0D028D0028AF2912014A8E2E8F2F12029BDE
:01029A002241
:040AC3008E188F19E1
:100AC700E519451870237F80120CD7751A00751B1E
:100AD700011206BB051BE51B7002051AD39410E52E
:100AE7001A940040EC7F80802DE519640145187049
:100AF700237FC0120CD7751A00751B011206BB05A0
:100B07001BE51B7002051AD39410E51A940040ECFC
:090B17007FC080027F01120CD79F
:010B200022B2
:0F0F2E00D2B0D2B1120DFEC2B1120DFEC2B0226E
:0A0F8E00C2B0C2B1120DF5D2B122BB
:070D3D00A907120F2E7FD061
:020D4400AB07FB
:100D4600E4FAEB30E703D38001C392B1120DFCC283
:100D5600B0EB25E0FB0ABA08E9D2B1D2B020B1FD6A
:090D6600C2B07F057E00020E02FE
:100DA1007F04120D44120F8E120F2E7FD1120D44AB
:100DB100E4FA120DF5A2B19200EB25E0FBA200E4EA
:0B0DC100334203C2B00ABA08E9AF03D6
:010DCC002204
:060F9800120DF5C2B022AB
:100E6400AD077C00ECC4F854F0C8EDC4540F4875C9
:0B0E7400F00AA4FFED540F2F1201261E
:080E7F00C2B1120F98D2B1229A
:100E8700AD077C00ECC4F854F0C8EDC4540F4875A6
:0B0E9700F00AA4FFED540F2F120126FB
:080EA200D2B1120F98D2B02268
:100EDD008F21A905120F2E7FA0120D44AF21120DE7
:090EED0044AF01120D44020F8E06
:020E1B00A90725
:100E1D00120F2E7FA0120D44AF01120D44120F2E92
:100E2D007FA1120D44120DB1AB07120EA2120F8E3F
:020E3D00AF0301
:010E3F002290
:090381007F04120D44AF017E005F
:10038A008E248F2578267C007D007BFF7A097907E9
:10039A007E007F101200D3E4F536F5377B07FAD3D7
:1003AA00E5259400E52494004051AE24AF257C0055
:1003BA007D0A12014A8D828C83AE24AF257C007D92
:1003CA000A12014A8E248F25D3E5829400E583948C
:1003DA00004022E5825401FFEB25E02426F876004E
:1003EA0008A607E583C313F583E58213F582EB1BA1
:1003FA0070D61A80D37A007B0380A4E4FBFAC37414
:10040A00079BFFE49AAD07FC753800753901900027
:10041A0000C3E5829DE5839C500EE53925E0F53958
:10042A00E53833F538A380E9EB25E02426F8E6FC25
:10043A0008E6FDAE38AF39120138EF2537F537EE49
:10044A003536F5360BBB00010AEB64084A70AFAECD
:03045A0036AF3783
:01045D00227C
:100F0E00120D3F7F07120D44E4FF120D44020F8EA7
:100DCD008F218D22A903120D3FE4FF120383120D13
:100DDD0044AF227E0012038A120D44AF217E001211
:080DED00038A120D44020F8E6F
:0E0F3D00120D3D7F02120383120D44020F8E2F
:100C23008F228D23E52364416006E52364617014FC
:100C3300120D3F7F02120D44AF227E0012038AEF92
:100C43004440801EE52364506006E52364707019F8
:100C5300120D3F7F02120D44AF227E0012038AEF72
:0A0C63004460FF120D44120F8E22B0
:0E0F4B00120D3D7F01120383120D44020F8E22
:100F1E00120D3D7F03120D44AF01120D44020F8ED0
:100E40008D218B22120D3D120381120D44AF217EA4
:100E50000012038A120D44AF227E0012038A120D83
:040E600044020F8EAB
:0C0F8200120D3D120381120D44020F8E6F
:0E0F5900120D3D7F05120383120D44020F8E10
:0E0F6700120D3D7F06120383120D44020F8E01
:0609F5008B288A29892AE3
:1009FB00120D3FE4FF120DA3AB2EAA2FA930120E3E
:100A0B0064120DB17C00AD07ECC4F854F0C8EDC412
:100A1B00540F4875F00AA4FFED540F2FAB2BAA2CE3
:100A2B00A92D120126120E7F120DB17C00AD07EC21
:100A3B00C4F854F0C8EDC4540F4875F00AA4FFED88
:100A4B00540F2FAB28AA29A92A120126120EA20293
:020A5B000F8EFC
:06052A008B288A29892AB2
:10053000120D3F7F02120DA3752E008F2F120EA2F7
:10054000120F8EC3E52F9440E52E9400502AE52E1D
:10055000C4F854F0C8E52FC4540F4875F00AA4FF3E
:10056000E52F540F2FAB28AA29A92A120126AB2B5D
:10057000AA2CA92D74308077C3E52F9440E52E94E2
:10058000004037D3E52F9460E52E9400502CE52EE3
:10059000C4F854F0C8E52FC4540F48540175F00A4C
:1005A000A4FFE52F540F2FAB28AA29A92A12012650
:1005B000AB2BAA2CA92D74418035D3E52F9460E58F
:1005C0002E9400402DE52EC4F854F0C8E52FC454F5
:1005D0000F48540175F00AA4FFE52F540F2FAB28E4
:1005E000AA29A92A120126AB2BAA2CA92D745012D4
:0205F0000126E2
:0105F20022E6
:060EAA008B248A25892635
:100EB000120D3F7F01120DA3AB24AA25A926120E05
:040EC00087020F8E08
:060A5D008B288A29892A7A
:100A6300120D3F120DA1AB28AA29A92A120E641256
:100A73000DB17C00AD07ECC4F854F0C8EDC4540FBD
:100A83004875F00AA4FFED540F2FAB2BAA2CA92D08
:100A9300120126120E7F120DB17C00AD07ECC4F8D3
:100AA30054F0C8EDC4540F4875F00AA4FFED540F79
:100AB3002FAB2EAA2FA930120126120EA2020F8EDF
:060EF6008B1C8A1D891E01
:100EFC00120D3F120DA1AB1CAA1DA91E120E8702CA
:020F0C000F8E46
:060C6D008B3F8A40894123
:100C7300120D3F7F05120DA3AD077C00ECC4F854A1
:100C8300F0C8EDC4540F4875F00AA4FFED540F2FBC
:0F0C9300AB3FAA40A941120126120EA2020F8EFA
:060CA2008B428A438944E5
:100CA800120D3F7F06120DA3AD077C00ECC4F8546B
:100CB800F0C8EDC4540F4875F00AA4FFED540F2F87
:0F0CC800AB42AA43A944120126120EA2020F8EBC
:1005F300752B00752C00752D22752E00752F007537
:1006030030217B007A0079231209F5752B00752CB4
:1006130000752D247B007A00792312052A752B009F
:10062300752C00752D26752E00752F007530277BD0
:10063300007A007925120A5D12098C7BFF7A08790A
:10064300A41206C1E4FDFC7F01FE1209947BFF7A2C
:100653000879AB1206C17D067C00E4FFFE12099403
:10066300AF2312019F7F3A120D0AAF2212019F7F1F
:100673003A120D0AAF2112019F7D0F7C00E4FFFEA9
:10068300120994E52464306005AF24120D0A7D0637
:100693007C007F017E00120994AF2512019F7F2FFA
:1006A300120D0AAF2612019F7F2F120D0AAF277E6C
:0806B300007D027C000201A59C
:100D6F00A293E433B5172AE4B51626C3E509940414
:100D7F00E5089400500A0509E50970090508800582
:100D8F00E4F508F509A293E43365177002E51660E0
:020D9F00F4223C
:10045E00752B00752C00752D217B007A00790A1200
:10046E00052A12098C7BFF7A0879B21206C1E4FDC7
:10047E00FC7F01FE1209947BFF7A0879BB1206C13C
:10048E00AF0A12019FE521643060081206BBAF214E
:10049E00120D0AA294E43365177002E516707CE51E
:1004AE0021B43010E50AC394175004050A805B7519
:1004BE000A0C8019E52164417024E50AB40C057517
:1004CE000A018009E50AC3940B5006050A7D418096
:1004DE002AE50A640B7038750A0C7D50801DE521E3
:1004EE006450702BE50AB40C07750A017D50800B21
:1004FE00E50AC3940B500B050A7D50AF0A120C236C
:10050E00800DE50AB40B08E4F50AAF0A120F3DA2FE
:0B051E0094E43365177002E51660F4EA
:0105290022AF
:100B21007B007A00790B120EAA12098C7BFF7A08DE
:100B310079B21206C1E4FDFC7F01FE1209947BFF2C
:100B41007A0879C41206C1AF0B12019FA294E43353
:100B5100B5171EE4B5161AE50BC3943B5004050BFB
:100B61008003E4F50BA294E43365177002E5166087
:060B7100F4AF0B020F4B74
:100B7700AF0C120E1B8F1012098C7BFF7A0879CFEE
:100B87001206C1E4FDFC7F01FE1209947BFF7A087F
:100B970079E01206C1AF1012019FA294E433B51792
:100BA7001EE4B5161AE510C3941750040510800308
:100BB700E4F510A294E43365177002E51660F4AD0E
:060BC70010AF0C020EDD70
:100BCD00AF0D120E1B8F1512098C7BFF7A0879CF92
:100BDD001206C1E4FDFC7F01FE1209947BFF7A0829
:100BED0079C41206C1AF1512019FA294E433B51753
:100BFD001EE4B5161AE515C3943B50040515800384
:100C0D00E4F515A294E43365177002E51660F4ADB2
:060C1D0015AF0D020EDD13
:10091700752B00752C00752D237B007A0079211229
:10092700052A7B007A007922120EAAAF0C120E1B41
:100937008F10AF0D120E1B8F15AF0E120E1B8F11DE
:10094700AF0F120E1B8F12E521C395104034E5102F
:100957002511FFE433FED3E5219FEE6480F8748010
:1009670098501FE522C395154018E5152512FFE499
:1009770033FED3E5229FEE6480F87480985003D24B
:040987009622C2965C
:01098B002249
:10076C00E4F50CE50C04F50D04F50E04F50FE4FDB1
:10077C00AF0C120EDD7D01AF0D120EDDE4FDAF0EE0
:10078C00120EDD7D03AF0F120EDD120EC412098F97
:10079C007BFF7A0879EE1206C1E4FDFC7F01FE12A4
:1007AC0009947BFF7A0879FB1206C1120F0E7B1E8F
:1007BC007D3B7F17120DCD7B137D0C7F1F120E40DE
:1007CC007FE87E03120E02C296120D6FE5087024AC
:1007DC00E50924FE600F14601114601324037014D7
:1007EC0012045E8012120B21800D120B77800812FE
:0C07FC000BCD80031205F312091780CD0D
:1008140002076CE493A3F8E493A34003F68001F287
:1008240008DFF48029E493A3F85407240CC8C333E5
:10083400C4540F4420C8834004F456800146F6DFB4
:10084400E4800B0102040810204080900F75E47EC0
:10085400019360BCA3FF543F30E509541FFEE493A9
:10086400A360010ECF54C025E060A840B8E493A370
:10087400FAE493A3F8E493A3C8C582C8CAC583CA9B
:10088400F0A3C8C582C8CAC583CADFE9DEE780BE53
:010F8100006F
:10000300E709F608DFFA8046E709F208DFFA803EDF
:1000130088828C83E709F0A3DFFA8032E309F608CC
:10002300DFFA8078E309F208DFFA807088828C8334
:10003300E309F0A3DFFA806489828A83E0A3F608E8
:10004300DFFA805889828A83E0A3F208DFFA804CC2
:1000530080D280FA80C680D4806980F28033801099
:1000630080A680EA809A80A880DA80E280CA803302
:1000730089828A83ECFAE493A3C8C582C8CCC5837A
:10008300CCF0A3C8C582C8CCC583CCDFE9DEE7804A
:100093000D89828A83E493A3F608DFF9ECFAA9F0C9
:1000A300EDFB2289828A83ECFAE0A3C8C582C8CC1F
:1000B300C583CCF0A3C8C582C8CCC583CCDFEADE38
:1000C300E880DB89828A83E493A3F208DFF980CC9A
:1000D30088F0EF60010E4E60C388F0ED2402B40493
:1000E3000050B9F582EB2402B4040050AF2323453A
:0600F3008223900053730C
:1000F900BB010CE58229F582E5833AF583E02250BC
:1001090006E92582F8E622BBFE06E92582F8E22205
:0D011900E58229F582E5833AF583E493221F
:10012600BB010689828A83F0225002F722BBFE01B8
:02013600F322B2
:10013800EF8DF0A4A8F0CF8CF0A428CE8DF0A42EDB
:02014800FE2295
:10014A00BC000BBE0029EF8DF084FFADF022E4CC99
:10015A00F875F008EF2FFFEE33FEEC33FCEE9DEC62
:10016A00984005FCEE9DFE0FD5F0E9E4CEFD22EDA8
:10017A00F8F5F0EE8420D21CFEADF075F008EF2FF2
:10018A00FFED33FD4007985006D5F0F222C398FDE3
:05019A000FD5F0EA2280
:00000001FF
