:03000000020A41B0
:0C0A4100787FE4F6D8FD75810902099069
:06080000AD03AC027E0016
:100806008E088F09ED4C705CE5087054E509B40A52
:1008160000504D900820F828287302083E0208422E
:1008260002084602084A02084E0208520208560208
:10083600085A02085E02086275803F227580062209
:1008460075805B2275804F227580662275806D22C9
:1008560075807D227580072275807F2275806F22C4
:1008660075808022ED64014C705CE5087054E509E2
:10087600B40A00504D900882F82828730208A00296
:1008860008A40208A80208AC0208B00208B40208CC
:10089600B80208BC0208C00208C475903F227590D1
:1008A600062275905B2275904F2275906622759090
:1008B6006D2275907D227590072275907F22759026
:1008C6006F2275908022ED64024C705CE5087054CE
:1008D600E509B40A00504D9008E4F8282873020987
:1008E6000202090602090A02090E02091202091683
:1008F60002091A02091E02092202092675A03F22D0
:1009060075A0062275A05B2275A04F2275A06622EF
:1009160075A06D2275A07D2275A0072275A07F2285
:1009260075A06F2275A08022ED64034C705BE5080C
:100936007054E509B40A00504D900946F82828730A
:1009460002096402096802096C020970020974024C
:10095600097802097C02098002098402098875B0B7
:100966003F2275B0062275B05B2275B04F2275B076
:10097600662275B06D2275B07D2275B0072275B0FE
:0A0986007F2275B06F2275B0802249
:040A24007FE87E03E6
:100A2800EF4E60147D737C00ED1D70011CED4C7061
:080A3800F7EF1F70EB1E80E8D0
:010A40002293
:100990007B027A00AD03AC02E4FFFE120806120AE5
:1009A000247F01120800120A247F02120800120A92
:1009B00024AD03AC027F037E00120806120A24ADA8
:1009C00003AC027F047E00120806120A24AD03ACB9
:1009D000027F057E00120806120A24AD03AC027FD6
:1009E000067E00120806120A24AD03AC027F077EC1
:1009F00000120806120A24AD03AC027F087E001222
:100A00000806120A24AD03AC027F097E0012080614
:100A1000120A24AD03AC027F0A7E00120806120AF5
:040A2000240209940F
:00000001FF
