:03000000020324D4
:0C032400787FE4F6D8FD75812E02036B93
:1004EF0041646472657373204552524F520020006D
:1004FF00383035312050726F6A656374004932436A
:10050F002050726F746F636F6C005265636965760C
:08051F00656420446174610071
:04068500021E00024F
:0D05B8007F057E001205C5D2B07F057E00D4
:1005C500EF4E60147D737C00ED1D70011CED4C70C9
:0805D500F7EF1F70EB1E80E838
:0105DD0022FB
:10052700C290D291E51E701FE51F14600E14600F74
:10053700146010240370108F80800E8F90800A8FB4
:10054700A080068FB080028F807F327E001205C5A3
:03055700C291222C
:10061F007F381205277F021205277F011205277FDA
:09062F000C1205277F06020527C5
:10055A00D290D291E51E701FE51F14600E14600F31
:10056A00146010240370108F80800E8F90800A8F81
:10057A00A080068FB080028F807F327E001205C570
:03058A00C29122F9
:0601DF007BFF7A0479FDAC
:0601E5008B138A1489153A
:1001EB00E4F516F517AB13AA14A915851782851616
:1001FB0083120290600A0517E51770E9051680E572
:10020B00E4F518F519C3E5199517E518951650740B
:10021B00D290D291E51E700DE51F14600A14601A7E
:10022B0014602A24038039AB13AA14A915851982EB
:10023B00851883120290F5908037AB13AA14A91579
:10024B00851982851883120290F5A08024AB13AA1E
:10025B0014A915851982851883120290F5B08011A7
:10026B00AB13AA14A915851982851883120290F570
:10027B00807F327E001205C5C2910519E519708584
:04028B000518808151
:01028F00224C
:050680007F01020527C7
:06042A00E4FDFC7F01FE71
:080430008E0D8F0E8C0F8D1054
:10043800E50E450D7019D3E510940FE50F940050A3
:1004480006E5102480801F7511007512808029E54B
:100458000E6401450D7028D3E510940FE50F940044
:100468005010E51024C0F512E4350FF511AF120253
:1004780005277511007512C0AF1212052780007B81
:08048800FF7A0479EF1201E58F
:010490002249
:0400F900AB07AA06A1
:1000FD00E4F50DF50EF50FF510EB4A70057F3002A6
:10010D00055AEB4A60397C007D0AAF03AE0212023C
:10011D00CF8C838D82AE0DAF0E7C007D0A1202BD99
:10012D00EF2582F50EEE3583F50DAF03AE0212020B
:10013D00CFAA06AB070510E51070C7050F80C3E405
:10014D00FBFAC3EB9510EA950F502BAE0DAF0E7C5D
:10015D00007D0A1202CFED2430FF74112BF8A60793
:10016D00AE0DAF0E7C007D0A1202CF8E0D8F0E0BE1
:10017D00BB00010A80CC74112510F8E4F6FAFBC31C
:10018D00EB9510EA950F5049D290D291E51E700D66
:10019D00E51F14600A1460101460162403801B748C
:1001AD00112BF8E6F590801974112BF8E6F5A08067
:1001BD001074112BF8E6F5B0800774112BF8E6F5E5
:1001CD00807F327E001205C5C2910BBB00010A80F3
:0101DD00AE73
:0101DE0022FE
:080003008E218F228C238D2435
:10000B00E4F525F526852127852228F52D752E016A
:10001B00E52245217021F52BF52CC3E52C9524E524
:10002B002B952340030200F87F3012055A052CE56F
:10003B002C70E7052B80E3E52845276037AE27AF0B
:10004B00287C007D0A1202CFAA04AB05AE29AF2A89
:10005B007C007D0A1202BDEF2BF52AEE3AF529AE94
:10006B0027AF281202CF8E278F280526E52670C7CB
:10007B00052580C3D3E5269524E52595235030C36C
:10008B00E5249526FFE5239525AB07FAE4F52BF53B
:10009B002CC3E52C9BE52B9A500F7F3012055A058C
:1000AB002CE52C70EC052B80E8AF22AE21803BC3F6
:1000BB00E5269524FFE5259523AB07FAD3EB9400B2
:1000CB00EA94004016AE2DAF2E7C007D0A1202BDC5
:1000DB008E2D8F2EEB1B70E41A80E1AC2DAD2EAE66
:0D00EB0021AF221202CF8E278F281200F9BC
:0100F80022E5
:040491008E1A8F1B15
:10049500E51B451A70237F80120527751C00751D05
:1004A500011201DF051DE51D7002051CD39410E541
:1004B5001C940040EC7F80802DE51B6401451A707B
:1004C500237FC0120527751C00751D011201DF056C
:1004D5001DE51D7002051CD39410E51C940040EC2D
:0904E5007FC080027F011205278F
:0104EE0022EB
:0F065100D2B0D2B11205C1C2B11205C1C2B022DE
:0A066000C2B0C2B11205B8D2B12237
:02058D00AB07BA
:10058F00E4FAEB30E703D38001C392B11205BFC287
:10059F00B0EB25E0FB0ABA08E9D2B1D2B020B1FD29
:0905AF00C2B07F057E000205C503
:10060300E4FA1205B8A2B19200EB25E0FBA200E4E4
:0B061300334203C2B00ABA08E9AF038B
:01061E0022B9
:06067A001205B8C2B02217
:08066A00C2B112067AD2B122DE
:08067200D2B112067AD2B022C7
:100638008F0DA9051206517FA012058DAF0D120569
:090648008DAF0112058D02066060
:0205DE00A9076B
:1005E0001206517FA012058DAF0112058D12065122
:1005F0007FA112058D120603AB0712067212066068
:02060000AF0346
:0106020022D5
:1003B000750A53E4F50BE50B04F50C12061FE4FD7A
:1003C000FCFFFE1204307BFF7A0479FF1201E51274
:1003D000042A7BFF7A05790C1201E57FE87E03127F
:1003E00005C5AD0AAF0B1206387D84AF0C12063876
:1003F0007FF47E011205C5AF0B1205DE8F08AF0C2E
:100400001205DE8F09120680E4FDFCFFFE120430A7
:100410007BFF7A0579191201E512042AAF0812054B
:0A0420005AAF097E001200F980FEB9
:100330000203B0E493A3F8E493A34003F68001F230
:1003400008DFF48029E493A3F85407240CC8C333CE
:10035000C4540F4420C8834004F456800146F6DF9D
:10036000E4800B0102040810204080900685E47EA2
:10037000019360BCA3FF543F30E509541FFEE49392
:10038000A360010ECF54C025E060A840B8E493A359
:10039000FAE493A3F8E493A3C8C582C8CAC583CA84
:1003A000F0A3C8C582C8CAC583CADFE9DEE780BE3C
:010689000070
:10029000BB010CE58229F582E5833AF583E0225023
:1002A00006E92582F8E622BBFE06E92582F8E2226D
:0D02B000E58229F582E5833AF583E4932287
:1002BD00EF8DF0A4A8F0CF8CF0A428CE8DF0A42E55
:0202CD00FE220F
:1002CF00BC000BBE0029EF8DF084FFADF022E4CC13
:1002DF00F875F008EF2FFFEE33FEEC33FCEE9DECDC
:1002EF00984005FCEE9DFE0FD5F0E9E4CEFD22ED22
:1002FF00F8F5F0EE8420D21CFEADF075F008EF2F6C
:10030F00FFED33FD4007985006D5F0F222C398FD5C
:05031F000FD5F0EA22F9
:00000001FF
