:03000000020225D4
:0C022500787FE4F6D8FD75812602026C9B
:1004120041646472657373204552524F520020004A
:10042200383035312050726F6A6563740049324347
:100432002050726F746F636F6C00526563696576EA
:0804420065642044617461004F
:04053000022500029E
:0D04B0007F057E001204BDD2B07F057E00E6
:1004BD00EF4E60147D737C00ED1D70011CED4C70D2
:0804CD00F7EF1F70EB1E80E841
:0104D5002204
:10044A00C290D291E525701FE52614600E14600F44
:10045A00146010240370108F80800E8F90800A8F92
:10046A00A080068FB080028F807F327E001204BD8A
:03047A00C291220A
:1004F9007F3812044A7F0212044A7F0112044A7F9C
:090509000C12044A7F0602044AA8
:10047D00D290D291E525701FE52614600E14600F01
:10048D00146010240370108F80800E8F90800A8F5F
:10049D00A080068FB080028F807F327E001204BD57
:0304AD00C29122D7
:0600E0007BFF7A04792089
:0600E6008B0F8A10891146
:1000EC00E4F512F513AB0FAA10A911851382851232
:1000FC0083120191600A0513E51370E9051280E57E
:10010C00E4F514F515C3E5159513E5149512507423
:10011C00D290D291E525700DE52614600A14601A70
:10012C0014602A24038039AB0FAA10A911851582FB
:10013C00851483120191F5908037AB0FAA10A91189
:10014C00851582851483120191F5A08024AB0FAA2A
:10015C0010A911851582851483120191F5B08011B7
:10016C00AB0FAA10A911851582851483120191F584
:10017C00807F327E001204BDC2910515E515708595
:04018C000514808155
:01019000224C
:05052B007F0102044AFB
:0602B100E4FDFC7F01FEEC
:0802B7008E098F0A8C0B8D0CDF
:1002BF00E50A45097019D3E50C940FE50B9400502E
:1002CF0006E50C2480801F750D00750E808029E5D2
:1002DF000A640145097028D3E50C940FE50B9400CF
:1002EF005010E50C24C0F50EE4350BF50DAF0E02E2
:1002FF00044A750D00750EC0AF0E12044A80007BC4
:08030F00FF7A0479121200E6E6
:0103170022C3
:04000300AB07AA0697
:10000700E4F516F517F518F519EB4A60397C007D0C
:100017000AAF03AE021201D08C838D82AE16AF17E2
:100027007C007D0A1201BEEF2582F517EE3583F5B8
:1000370016AF03AE021201D0AA06AB070519E519E0
:1000470070C7051880C3E4FBFAC3EB9519EA951846
:10005700502BAE16AF177C007D0A1201D0ED24306D
:10006700FF741A2BF8A607AE16AF177C007D0A128D
:1000770001D08E168F170BBB00010A80CC741A258E
:1000870019F8E4F6FAFBC3EB9519EA95185049D22B
:1000970090D291E525700DE52614600A14601014BE
:1000A70060162403801B741A2BF8E6F590801974E8
:1000B7001A2BF8E6F5A08010741A2BF8E6F5B08035
:1000C70007741A2BF8E6F5807F327E001204BDC252
:0800D700910BBB00010A80AE91
:0100DF0022FE
:04037C008E218F221D
:10038000E522452170237F8012044A7523007524DD
:10039000011200E00524E52470020523D39410E542
:1003A00023940040EC7F80802DE52264014521707C
:1003B000237FC012044A7523007524011200E00552
:1003C00024E52470020523D39410E523940040EC27
:0903D0007FC080027F0112044A83
:0103D9002201
:0F051200D2B0D2B11204B9C2B11204B9C2B02230
:0A052100C2B0C2B11204B0D2B12280
:0D03DA001204BD1205127FA01203E7E4FF1C
:0203E700AB0762
:1003E900E4FAEB30E703D38001C392B11204B7C238
:1003F900B0EB25E0FB0ABA08E9D2B1D2B020B1FDD1
:09040900C2B07F057E000204BDB3
:1004D600E4FA1204B0A2B19200EB25E0FBA200E41C
:1004E600334203C2B00ABA08E9D2B11204B7C2B0A5
:0204F600AF0352
:0104F80022E1
:100318001204F9E4FDFCFFFE1202B77BFF7A0479B0
:10032800221200E61202B17BFF7A04792F1200E64E
:100338007FE87E031203DA7F411203E71205217F6B
:10034800F47E011203DA1205127FA11203E71204E8
:10035800D68F0812052112052BE4FDFCFFFE1202C0
:10036800B77BFF7A04793C1200E61202B1AF08129B
:04037800047D80FE82
:10023100020318E493A3F8E493A34003F68001F2C8
:1002410008DFF48029E493A3F85407240CC8C333CE
:10025100C4540F4420C8834004F456800146F6DF9D
:10026100E4800B0102040810204080900530E47EF8
:10027100019360BCA3FF543F30E509541FFEE49392
:10028100A360010ECF54C025E060A840B8E493A359
:10029100FAE493A3F8E493A3C8C582C8CAC583CA84
:1002A100F0A3C8C582C8CAC583CADFE9DEE780BE3C
:0105340000C6
:10019100BB010CE58229F582E5833AF583E0225023
:1001A10006E92582F8E622BBFE06E92582F8E2226D
:0D01B100E58229F582E5833AF583E4932287
:1001BE00EF8DF0A4A8F0CF8CF0A428CE8DF0A42E55
:0201CE00FE220F
:1001D000BC000BBE0029EF8DF084FFADF022E4CC13
:1001E000F875F008EF2FFFEE33FEEC33FCEE9DECDC
:1001F000984005FCEE9DFE0FD5F0E9E4CEFD22ED22
:10020000F8F5F0EE8420D21CFEADF075F008EF2F6B
:10021000FFED33FD4007985006D5F0F222C398FD5C
:050220000FD5F0EA22F9
:00000001FF
