:03000000020418DF
:0C041800787FE4F6D8FD75813D02045F9A
:1006010041646472657373204552524F5200200059
:10061100383035312050726F6A656374005254432B
:1006210020496E746572666163696E670054696D15
:0B063100653A2000446174653A200027
:04080000020C0002E4
:0D070E007F057E0012071BD2B07F057E0024
:10071B00EF4E60147D737C00ED1D70011CED4C7071
:08072B00F7EF1F70EB1E80E8E0
:0107330022A3
:10067600C290D291E50C701FE50D14600E14600F48
:10068600146010240370108F80800E8F90800A8F64
:10069600A080068FB080028F807F327E0012071BFB
:0306A600C29122DC
:100793007F381206767F021206767F011206767F75
:0907A3000C1206767F06020676B0
:1006A900D290D291E50C701FE50D14600E14600F05
:1006B900146010240370108F80800E8F90800A8F31
:1006C900A080068FB080028F807F327E0012071BC8
:0306D900C29122A9
:0602C1007BFF7A06790FB5
:0602C7008B2D8A2E892F09
:1002CD00E4F530F531AB2DAA2EA92F85318285307D
:1002DD0083120372600A0531E53170E9053080E55E
:1002ED00E4F532F533C3E5339531E532953050748D
:1002FD00D290D291E50C700DE50D14600A14601AC0
:10030D0014602A24038039AB2DAA2EA92F853382A0
:10031D00853283120372F5908037AB2DAA2EA92F4B
:10032D00853382853283120372F5A08024AB2DAA0A
:10033D002EA92F853382853283120372F5B0801179
:10034D00AB2DAA2EA92F853382853283120372F528
:10035D00807F327E0012071BC2910533E533708515
:04036D000532808154
:010371002269
:0507FB007F01020676FB
:0604A400E4FDFC7F01FEF7
:0804AA008E278F288C298D2A72
:1004B200E52845277019D3E52A940FE529940050C1
:1004C20006E52A2480801F752B00752C808029E583
:1004D20028640145277028D3E52A940FE529940062
:1004E2005010E52A24C0F52CE43529F52BAF2C0257
:1004F2000676752B00752CC0AF2C12067680007B19
:08050200FF7A0679011202C71D
:01050A0022CE
:0400FF00AB07AA069B
:10010300E4F535F536F537F538EB4A70057F3002FF
:1001130006A9EB4A60397C007D0AAF03AE021203E5
:10012300C38C838D82AE35AF367C007D0A1203B15A
:10013300EF2582F536EE3583F535AF03AE021203B4
:10014300C3AA06AB070538E53870C7053780C3E493
:10015300FBFAC3EB9538EA9537502BAE35AF367CB7
:10016300007D0A1203C3ED2430FF74392BF8A60770
:10017300AE35AF367C007D0A1203C38E358F360B46
:10018300BB00010A80CC74392538F8E4F6FAFBC3C6
:10019300EB9538EA95375049D290D291E50C700D22
:1001A300E50D14600A1460101460162403801B7498
:1001B300392BF8E6F590801974392BF8E6F5A08011
:1001C3001074392BF8E6F5B0800774392BF8E6F58F
:1001D300807F327E0012071BC2910BBB00010A8095
:0101E300AE6D
:0101E40022F8
:060003007E007D027C007E
:080009008E278F288C298D2A17
:10001100E4F52BF52C85272D85282EF53375340134
:10002100E52845277021F531F532C3E532952AE5FA
:1000310031952940030200FE7F301206A90532E501
:100041003270E7053180E3E52E452D6037AE2DAFE7
:100051002E7C007D0A1203C3AA04AB05AE2FAF307C
:100061007C007D0A1203B1EF2BF530EE3AF52FAE8D
:100071002DAF2E1203C38E2D8F2E052CE52C70C7AC
:10008100052B80C3D3E52C952AE52B95295030C348
:10009100E52A952CFFE529952BAB07FAE4F531F517
:1000A10032C3E5329BE5319A500F7F301206A90524
:1000B10032E53270EC053180E8AF28AE27803BC3D2
:1000C100E52C952AFFE52B9529AB07FAD3EB940094
:1000D100EA94004016AE33AF347C007D0A1203B1BE
:1000E1008E338F34EB1B70E41A80E1AC33AD34AE48
:0D00F10027AF281203C38E2D8F2E1200FFA3
:0100FE0022DF
:04050B008E088F09BE
:10050F00E509450870237F80120676750A00750B82
:10051F00011202C1050BE50B7002050AD39410E519
:10052F000A940040EC7F80802DE509640145087036
:10053F00237FC0120676750A00750B011202C105E2
:10054F000BE50B7002050AD39410E50A940040ECFA
:09055F007FC080027F01120676C4
:010568002270
:0607AC001206E31207E350
:0F07B200D2B0D2B1120717C2B1120717C2B022CC
:0A07E300C2B0C2B112070ED2B1225B
:0706DC00A9031207B27FD051
:0206E300AB0763
:1006E500E4FAEB30E703D38001C392B1120715C2D8
:1006F500B0EB25E0FB0ABA08E9D2B1D2B020B1FDD2
:09070500C2B07F057E0002071B53
:10063C00AD077C00ECC4F854F0C8EDC4540F4875F9
:0E064C00F00AA4FFED540F2F12039F1207EDCA
:10065A00E4FA12070EA2B19200EB25E0FBA200E435
:0B066A00334203C2B00ABA08E9AF0334
:010675002262
:0607F50012070EC2B02243
:0807ED00C2B11207F5D2B122DE
:100734007C00AD07ECC4F854F0C8EDC4540F487500
:0B074400F00AA4FFED540F2F12039FDA
:08074F00D2B11207F5D2B0226D
:1007D3001206DE7F071206E3E4FF1206E30207E3D5
:100757008F278D281206DCE4FF1206E3AF0112068D
:0E076700E3AF281206E3AF271206E30207E312
:1007C100A9071206DE7F031206E3AF011206E30258
:0207D10007E33C
:100775008F278D281206DC7F041206E3AF271206A9
:0E078500E3AF281206E3AF011206E30207E31A
:060569008B278A28892976
:10056F001206DEE4FF1207AC7FD11206E312065A21
:10057F00AB2DAA2EA92F12063C7C00AD07ECC4F8B8
:10058F0054F0C8EDC4540F4875F00AA4FFED540F92
:10059F002FAB2AAA2BA92C120654AB27AA28A929BC
:0605AF001207340207E30D
:0605B5008B278A2889292A
:1005BB001206DE7F041207AC7FD11206E312065A35
:1005CB00AB27AA28A92912063C7C00AD07ECC4F87E
:1005DB0054F0C8EDC4540F4875F00AA4FFED540F46
:1005EB002FAB2AAA2BA92C120654AB2DAA2EA92F5E
:0605FB001207340207E3C1
:1001E500120793E4FDFCFFFE1204AA7BFF7A067951
:1001F500111202C71204A47BFF7A06791E1202C7E8
:100205001207D37B307D597F231207577B197D1247
:100215007F311207757FE87E0312071B1207FBE487
:10022500FDFCFFFE1204AA7BFF7A06792E1202C797
:100235001204A47BFF7A0679351202C7752A007568
:100245002B00752C22752D00752E00752F217B0036
:100255007A0079231205697D067C00E4FFFE12040D
:10026500AAAF231200037F3A1206A9AF2212000398
:100275007F3A1206A9AF21120003752A00752B00DB
:10028500752C25752D00752E00752F267B007A009F
:1002950079241205B57D067C007F017E001204AA33
:1002A500AF241200037F2F1206A9AF251200037F8A
:0C02B5002F1206A9AF261200030202411E
:100424000201E5E493A3F8E493A34003F68001F208
:1004340008DFF48029E493A3F85407240CC8C333D9
:10044400C4540F4420C8834004F456800146F6DFA8
:10045400E4800B0102040810204080900800E47E30
:10046400019360BCA3FF543F30E509541FFEE4939D
:10047400A360010ECF54C025E060A840B8E493A364
:10048400FAE493A3F8E493A3C8C582C8CAC583CA8F
:10049400F0A3C8C582C8CAC583CADFE9DEE780BE47
:0108040000F3
:10037200BB010CE58229F582E5833AF583E0225040
:1003820006E92582F8E622BBFE06E92582F8E2228A
:0D039200E58229F582E5833AF583E49322A4
:10039F00BB010689828A83F0225002F722BBFE013D
:0203AF00F32237
:1003B100EF8DF0A4A8F0CF8CF0A428CE8DF0A42E60
:0203C100FE221A
:1003C300BC000BBE0029EF8DF084FFADF022E4CC1E
:1003D300F875F008EF2FFFEE33FEEC33FCEE9DECE7
:1003E300984005FCEE9DFE0FD5F0E9E4CEFD22ED2D
:1003F300F8F5F0EE8420D21CFEADF075F008EF2F77
:10040300FFED33FD4007985006D5F0F222C398FD67
:050413000FD5F0EA2204
:00000001FF
